:100000000C94D4030C94FC030C94FC030C94FC039C
:100010000C94FC030C94FC030C94FC030C947D14D2
:100020000C94FC030C94FC030C94FC030C94FC0354
:100030000C94FC030C94FC030C94FC030C94FC0344
:100040000C9433140C94FC030C94FC030C94FC03EC
:100050000C94FC030C94FC030C94FC030C94FC0324
:100060000C94FF140C94FC0300000000003E5B4F56
:100070005B3E3E6B4F6B3E1C3E7C3E1C183C7E3C08
:10008000181C577D571C1C5E7F5E1C00183C180016
:10009000FFE7C3E7FF0018241800FFE7DBE7FF30A6
:1000A000483A060E2629792926407F050507407F14
:1000B00005253F5A3CE73C5A7F3E1C1C08081C1C87
:1000C0003E7F14227F22145F5F005F5F06097F017D
:1000D0007F006689956A606060606094A2FFA29468
:1000E00008047E040810207E201008082A1C080836
:1000F0001C2A08081E101010100C1E0C1E0C303884
:100100003E3830060E3E0E06000000000000005F84
:1001100000000007000700147F147F14242A7F2AA0
:100120001223130864623649562050000807030062
:10013000001C2241000041221C002A1C7F1C2A08AE
:10014000083E080800807030000808080808000011
:1001500060600020100804023E5149453E00427F85
:10016000400072494949462141494D331814127FD4
:100170001027454545393C4A494931412111090774
:100180003649494936464949291E000014000000F5
:1001900040340000000814224114141414140041C7
:1001A00022140802015909063E415D594E7C121184
:1001B000127C7F494949363E414141227F414141BC
:1001C0003E7F494949417F090909013E4141517337
:1001D0007F0808087F00417F41002040413F017FA8
:1001E000081422417F404040407F021C027F7F0470
:1001F00008107F3E4141413E7F090909063E4151B9
:10020000215E7F09192946264949493203017F01A8
:10021000033F4040403F1F2040201F3F4038403FA9
:10022000631408146303047804036159494D4300BF
:100230007F4141410204081020004141417F0402F6
:10024000010204404040404000030708002054548D
:1002500078407F284444383844444428384444286B
:100260007F385454541800087E090218A4A49C78BE
:100270007F0804047800447D40002040403D007F1A
:100280001028440000417F40007C047804787C08FA
:100290000404783844444438FC18242418182424CE
:1002A00018FC7C08040408485454542404043F44B3
:1002B000243C4040207C1C2040201C3C4030403CE2
:1002C00044281028444C9090907C4464544C440042
:1002D00008364100000077000000413608000201A6
:1002E0000204023C2623263C1EA1A161123A404092
:1002F000207A38545455592155557941225454780F
:1003000042215554784020545579400C1E527212A7
:100310003955555559395454545939555454580030
:1003200000457C410002457D420001457C407D1234
:1003300011127DF0282528F07C5455450020545496
:100340007C547C0A097F4932494949323A44444441
:100350003A324A4848303A4141217A3A424020787C
:10036000009DA0A07D3D4242423D3D4040403D3C7D
:1003700024FF2424487E4943662B2FFC2F2BFF09A2
:1003800029F620C0887E0903205454794100004496
:100390007D413048484A32384040227A007A0A0A81
:1003A000727D0D19317D2629292F282629292926F4
:1003B00030484D4020380808080808080808382F39
:1003C00010C8ACBA2F102834FA00007B00000814C3
:1003D0002A142222142A14085500550055AA55AA99
:1003E00055AAFF55FF55FF000000FF00101010FF39
:1003F00000141414FF001010FF00FF1010F010F094
:10040000141414FC001414F700FF0000FF00FF1484
:1004100014F404FC141417101F10101F101F1414D0
:10042000141F00101010F0000000001F101010101A
:100430001F10101010F010000000FF10101010100E
:1004400010101010FF10000000FF140000FF00FF4C
:1004500000001F10170000FC04F4141417101714E8
:1004600014F404F40000FF00F7141414141414140A
:10047000F700F7141414171410101F101F1414147D
:10048000F4141010F010F000001F101F0000001FE7
:1004900014000000FC140000F010F01010FF10FF1A
:1004A000141414FF141010101F00000000F010FFAF
:1004B000FFFFFFFFF0F0F0F0F0FFFFFF0000000093
:1004C00000FFFF0F0F0F0F0F3844443844FC4A4A17
:1004D0004A347E02020606027E027E0263554941CC
:1004E000633844443C04407E201E2006027E020203
:1004F00099A5E7A5991C2A492A1C4C7201724C3017
:100500004A4D4D303048784830BC625A463D3E49ED
:100510004949007E0101017E2A2A2A2A2A44445F91
:10052000444440514A444040444A51400000FF0185
:1005300003E080FF000008086B6B08361236243693
:10054000060F090F060000181800000010100030F8
:1005500040FF0101001F01011E00191D1712003C80
:100560003C3C3C0000000000000060000000000077
:10057000000000000000000000E00000000000009B
:100580000000000000000001E0000000000000008A
:1005900000000000000001F000000000000000006A
:1005A000000000000003F000000000000000000058
:1005B0000000000007F00000000000000000000044
:1005C00000000007F800000000000000000000002C
:1005D00000000FF800000003C0007E000001E000F2
:1005E0007F0FF800000003C000FE000001E000FFE4
:1005F000EFF800000003C000FE000001E000FFFF74
:10060000F800000003C000F00000000F007FFE7F34
:10061000C0000003C000F00000000F003FFE7FF8A4
:100620003FF1FBCFFCFEF3BC3DEFE01FFE7FFF7F01
:10063000FBFFDFFEFEFFBC3DEFE01FC6FFFF7FFBC1
:10064000FFDFFEFEFFBC3DEFE00FE3C7FE787BC39C
:10065000DE1EF0FFBC3DEF0007FF87FC787BC3DEAA
:100660001EF0F83C3DEF0001FFFFF0007BC3C01E11
:10067000F0F03C3DEF0001F37FE03FFBC3CFFEF025
:10068000F03C3DEF0003E33F807FFBC3DFFEF0F073
:100690003C3DEF0007E73C00787BC3DE1EF0F03CFA
:1006A0003DEF0007FFBE00787BC3DE1EF0F03C3D4F
:1006B000EF0007FFFE00787BC3DE1EF0F03C3DEF4D
:1006C000000FFFFE007FFBFFDFFEF0F03FFDEFE0DD
:1006D0000FFFFF007FFBFFDFFEF0F03FFDEFE00FBD
:1006E000F9FF003E79F9CF9EF0F01F3DE7E01FF1E2
:1006F000FF0000000000000000000000001F80FF5D
:10070000007FFFFFFFFFFFFFFFFFFFE01C007F00F8
:100710007FFFFFFFFEB46D888D18E000001F007F93
:10072000FFFFFFFE95AD7DB577E000000F007FFF76
:10073000FFFFFEA5AD9D8D19E0000006007FFFFFC5
:10074000FFFEB5ADEDB57EE00200000000240027FD
:10075000002A0000000000250028002B00000000F7
:1007600000230026002900040404040404040402F5
:10077000020202020203030303030301020408103E
:10078000204080010204081020010204081020000B
:100790000000080002010000030407000000000040
:1007A000000000001E16C61D11241FBECFEFD8E0AA
:1007B000DEBFCDBF11E0A0E0B1E0EAE2F0E402C0AC
:1007C00005900D92AC3EB107D9F724E0ACEEB1E054
:1007D00001C01D92A531B207E1F713E0C3EDD3E0EC
:1007E00004C02197FE010E94D11EC23DD107C9F766
:1007F0000E947A160C9408200C9400000895FC01C5
:1008000020812EBD0DB407FEFDCF2EB5FC01208347
:100810000895833081F028F4813099F08230A9F076
:1008200008958730A9F08830C9F08430B1F4809100
:1008300080008F7D03C0809180008F77809380003F
:10084000089584B58F7784BD089584B58F7DFBCFDF
:100850008091B0008F778093B00008958091B000B0
:100860008F7DF9CFCF93DF93282F30E0F901E15747
:10087000F84F8491F901E558F84FD491F901E959FD
:10088000F84FC491CC23A1F081110E940904EC2FF0
:10089000F0E0EE0FFF1FE35AF84FA591B491EC91F1
:1008A000ED2381E090E009F480E0DF91CF9108959D
:1008B00080E090E0FACF1F93CF93DF93282F30E0B2
:1008C000F901E157F84F8491F901E558F84FD491B7
:1008D000F901E959F84FC491CC23A9F0162F8111E1
:1008E0000E940904EC2FF0E0EE0FFF1FED5AF84FC5
:1008F000A591B4918FB7F894EC91111108C0D095DF
:10090000DE23DC938FBFDF91CF911F910895DE2B03
:10091000F8CFCF93DF9390E0FC01E558F84F249196
:100920008959984FFC0184918823C9F090E0880F81
:10093000991FFC01E75BF84FA591B491FC01ED5ABA
:10094000F84FC591D49161110DC09FB7F8948C9167
:10095000209582238C938881282328839FBFDF9151
:10096000CF910895623051F49FB7F8943C91822F53
:10097000809583238C93E8812E2BEFCF8FB7F8944B
:10098000EC912E2B2C938FBFEACF8E5080648093F6
:100990007C0080917A00806480937A0080917A0054
:1009A00086FDFCCF80917800909179000895823087
:1009B000910538F0880F991F880F991F05970197A7
:1009C000F1F708959F92AF92BF92CF92DF92EF928C
:1009D000FF920F931F93CF93DF93EC015B01888508
:1009E000998511E0892B09F010E8F501E0808E2D42
:1009F0008123992493948111912C2C813D814E81E6
:100A00005F8160E271EA87E090E00E94A01E022F01
:100A1000F12CC22ED12C002319F0C6010E94D7045C
:100A20008A85982F977F09F04FC08D858F3F89F079
:100A30009E2D912381E009F480E0891551F0EF8526
:100A4000F8898F899923D1F19081892B808399240A
:100A50009394E989FA898081998D892B8083002379
:100A600019F0C6010E94D7048E858F3F39F0EB89BB
:100A7000FC898081988D892309F0F12AE989FA8916
:100A80009081898D80958923808388859985892B9C
:100A900009F073C0110F1111BECF8E858F3F11F079
:100AA000F501F082DF91CF911F910F91FF90EF90B0
:100AB000DF90CF90BF90AF909F90089590818095E8
:100AC00089238083912CC5CF8C30A1F58D858F3FF4
:100AD00049F0EF85F8898F899E2D912339F1908116
:100AE000892B8083E989FA899081898D8095892372
:100AF0008083002319F0C6010E94D704E989FA898E
:100B00008081998D892B8083002319F0C6010E9472
:100B1000D7048E858F3F09F4B8CFEB89FC8980819B
:100B2000988D892309F4B1CFF12AAFCF90818095B8
:100B30008923D7CFE989FA898081998D892B808390
:100B4000002319F0C6010E94D7048D858F3F49F01C
:100B5000EF85F8898F899E2D912359F09081892BFB
:100B60008083E989FA899081898D809589238083A2
:100B7000D0CF908180958923F3CF16958CCFAF92FB
:100B8000BF92CF92DF92EF92FF920F931F93CF937A
:100B9000DF931F92CDB7DEB78C015B016A01DC01E8
:100BA0008D919C911197892B39F01296ED91FC91C2
:100BB000908181819CBD8DBDF80183858F3F19F0A7
:100BC00060E00E945B047501CA0CDB1CCE14DF04DC
:100BD000A9F0D7018D917D018983F80180819181F0
:100BE000892B29F0CE0101960E94FF03EFCFBE01B1
:100BF0006F5F7F4FC8010E94E204E8CFD8011B96C7
:100C00008C918F3F19F061E00E945B0481E00F90AE
:100C1000DF91CF911F910F91FF90EF90DF90CF90D8
:100C2000BF90AF9008953FB7F8948091850290915E
:100C30008602A0918702B091880226B5A89B05C0C4
:100C40002F3F19F00196A11DB11D3FBFBA2FA92F4B
:100C5000982F8827BC01CD01620F711D811D911D48
:100C600042E0660F771F881F991F4A95D1F70895B4
:100C70008F929F92AF92BF92CF92DF92EF92FF92AC
:100C80004B015C010E9413066B017C010E9413065C
:100C90006C197D098E099F09683E73408105910595
:100CA000A8F321E0821A9108A108B10888EEC80EC5
:100CB00083E0D81EE11CF11C81149104A104B1044D
:100CC00029F7FF90EF90DF90CF90BF90AF909F906B
:100CD0008F9008952FB7F8946091810270918202ED
:100CE00080918302909184022FBF08950895089502
:100CF000AF92BF92CF92DF92EF92FF920F931F932A
:100D0000CF93DF936C017B018B01040F151FEB0167
:100D10005E01AE18BF08C017D10759F06991D6011E
:100D2000ED91FC910190F081E02DC6010995892B90
:100D300079F7C501DF91CF911F910F91FF90EF904F
:100D4000DF90CF90BF90AF9008959B01AC0160E021
:100D500074E284EF90E00E94A01EBA01A901405104
:100D6000510961097109DB01CA01B695A7959795EB
:100D70008795813C2FE39207A105B105D0F58F3F00
:100D80009105A105B10509F030F41092B9008093E6
:100D9000B80081E008958D3F23E09207A105B105D9
:100DA00068F4DB01CA0143E0B695A795979587954E
:100DB0004A95D1F721E02093B900E9CF813F9F40C8
:100DC000A105B10558F4DB01CA0135E0B695A79538
:100DD000979587953A95D1F722E0EDCFDB01CA01CF
:100DE00027E0B695A795979587952A95D1F723E0A3
:100DF000E2CF80E00895FF920F931F93CF93DF938C
:100E0000FC0177FD72C080859185681779070CF029
:100E10006CC057FD6AC082859385481759070CF04E
:100E200064C08689823009F466C0833009F474C0D6
:100E3000813041F484819581841B950BAB01BC0109
:100E40006150710981A592A5681779070CF4CB014F
:100E500092A781A783A594A5481759070CF4CA0146
:100E600094A783A785A596A5861797070CF4CB01B1
:100E700096A785A787A590A9841795070CF4CA01A2
:100E800090AB87A787A9813051F42130310509F44F
:100E90004CC008F470C02230310509F491C087A914
:100EA000843019F5A481B5814A9FC0014B9F900DF4
:100EB0005A9F900D112497FD019695958795AB014A
:100EC00077FF02C04F5F5F4F55954795840F951F81
:100ED00007A0F0A5E02DE80FF91F908160FD95C0F7
:100EE0009F702295207F922B9083DF91CF911F914D
:100EF0000F91FF900895848195818C01061B170B3B
:100F0000B8016150710986819781DC01A41BB50B82
:100F1000AD014150510996CF86819781861B970B71
:100F2000BA01AC01415051098DCFCA0157FD079656
:100F3000C3E095958795CA95E1F7C481D5818C9FCB
:100F4000D0018D9FB00D9C9FB00D1124CD01860F57
:100F5000971FA7A1B0A5A80FB91FEA01C770DD2789
:100F600081E090E08C0101C0000FCA95EAF78C91F6
:100F7000802B8C9394CFCA0157FD0796B3E09595CB
:100F80008795BA95E1F7C481D5818C9FD0018D9F5B
:100F9000B00D9C9FB00D1124CD01860F971FA7A106
:100FA000B0A5A80FB91FEA01C770DD2781E090E066
:100FB00001C0880FCA95EAF780959C918923D9CF03
:100FC000CA0157FD0796A3E095958795AA95E1F785
:100FD000C481D5818C9FD0018D9FB00D9C9FB00D99
:100FE0001124CD01860F971FA7A1B0A5A80FB91F87
:100FF000EA01C770DD2781E090E08C0101C0000F9D
:10100000CA95EAF78C918027B4CF907F2F70292B57
:1010100020836BCF0895FC016370668B848195817A
:1010200026813781613039F0633029F091878087DC
:101030003387228708953187208793878287089591
:101040002F923F924F925F926F927F928F929F92D8
:10105000AF92BF92CF92DF92EF92FF920F931F93C6
:10106000CF93DF93CDB7DEB76A970FB6F894DEBFA4
:101070000FBECDBF9A8F898F7A8369834A01D22EA2
:1010800018870F833701BC2CDC0159962D913C91B8
:101090005A972115310509F015C118968D919C912B
:1010A0001997681779070CF0D7C11A968D919C9102
:1010B000481759070CF0D0C14C2C512CB6E0CB9EF0
:1010C000600D711D11247C876B87161617060CF0B6
:1010D000C3C1EA2DF0E0FA87E98793E0EE0FFF1F26
:1010E0009A95E1F7F88BEF87CF01840F951F1816BB
:1010F00019060CF0B1C1A98DBA8D58968C91811149
:1011000004C0BFEABD1508F4D394A98DBA8DED9142
:10111000FC9111970284F385E02DCD010995B5E08E
:10112000DB9EC0011124E981FA81FC83EB83312C21
:10113000212C9C0128593F4F388F2F8B4A2D50E08E
:101140005E8B4D8BEF89F88DE20DF31D44919E82ED
:101150008D82D12CC12C69817A81620D731D7A8BAD
:10116000698B842F90E09C8B8B8BE98DFA8DA0810D
:10117000B18140FF82C0F1E0BF126FC0AF126DC0FD
:101180001C96ED91FC912F813885A4014C0D5D1DBD
:1011900069897A89898D9A8D0995EB89FC89F595FC
:1011A000E7954E2F5FEFC51AD50A6D817E818D8937
:1011B0009E89680F791F7E836D8398E0C916D104DC
:1011C00081F6AFEF2A1A3A0AEB81FC81E40DF51D96
:1011D000FC83EB83F5E02F16310409F0B3CF2F81A8
:1011E000388526153705B9F0A98DBA8DED91FC919A
:1011F000B1E0BB1257C0AB1255C069817A816B5FF9
:101200007F4F0088F189E02D830128E030E0A401C0
:10121000898D9A8D0995A98DBA8DED91FC911197C3
:101220000688F789E02DCD016A960FB6F894DEBFE7
:101230000FBECDBFDF91CF911F910F91FF90EF9027
:10124000DF90CF90BF90AF909F908F907F906F90E6
:101250005F904F903F902F9009941E96ED91FC91D6
:10126000EF80F88409851A8592014D815E816B813A
:101270007C81898D9A8D099590CF2F81388526158F
:10128000370509F48ACF31E0B31207C0A31205C0B5
:101290001C96ED91FC91930178CF1E96ED91FC91F7
:1012A0007301E0CF6B857C85641975090684F78529
:1012B000E02D73010F8518899201A401898D9A8D03
:1012C0000995A9CFF901349694913297459154919B
:1012D000D91AB7E0DB9E400D511D1124F90125916B
:1012E00034913C8B2B8BFA0125903490FA01329685
:1012F000749031963491398B329664903196449043
:1013000041E04C1518F04A1508F07FC0662D062CF8
:10131000000C770B7C836B83842D042C000C990BC1
:101320009E838D83A98DBA8DED91FC9111970284D6
:10133000F385E02DCD010995512CD12CC12CEA2D3E
:10134000F0E0FA87E9872B2D30E03C872B87A4015A
:10135000440D511D47FC5A95588F4F8B69817A81F6
:10136000660D711D67FC7A957E876D877989C71632
:1013700008F051CF2C2D30E04D815E81420F531F7C
:10138000A985BA854A9FC0014B9F900D5A9F900D29
:101390001124FC01E80DF91DF88BEF87852D612CD8
:1013A0004F89588D420F531F5E8B4D8B671408F089
:1013B00050C044244394480E877041F4C101019603
:1013C000EB89FC89E20DF31DD4901C01D7FE19C0F6
:1013D000A98DBA8DED91FC91662D70E0B1E0BB1244
:1013E00019C0AB1217C02D853E85620F731F048490
:1013F000F585E02D2F8138854D895E89898D9A8DFF
:101400000995DD0C6394842DD1CF1E821D821C8230
:101410001B8288CF4B815C81640F751FAB85BC85B7
:101420006A9FC0016B9F900D7A9F900D1124698176
:101430007A81680F791F0684F785E02DEF80F884A4
:1014400009851A859D014F855889898D9A8D099541
:10145000D8CF570CC3948ACF6A960FB6F894DEBFE4
:101460000FBECDBFDF91CF911F910F91FF90EF90F5
:10147000DF90CF90BF90AF909F908F907F906F90B4
:101480005F904F903F902F9008958F929F92AF92D0
:10149000CF92EF92FF920F931F93CF93DF93EC01C4
:1014A000262F898D9A8D009709F051C06A30D1F4AA
:1014B0001D861C868D8948E0849F900111248E85AD
:1014C0009F85820F931F9F878E8781E090E0DF9139
:1014D000CF911F910F91FF90EF90CF90AF909F9081
:1014E0008F9008956D3089F3CC88AD888F898823DB
:1014F000C1F08C859D8536E0C39E800D911D112421
:10150000488559854817590764F44E855F851D86BF
:101510001C8638E0A39EC0011124840F951F9F876D
:101520008E87EA88FB88088919894E855F856C85D6
:101530007D85CE010E9420082C898C859D8546E002
:10154000249F800D911D11249D878C87BECF6A300A
:1015500069F41D861C86FC013896E4912D898E85E0
:101560009F85E29F800D911D1124ADCF6D3009F450
:10157000ACCFFC0134963491631708F4A6CF3296B1
:10158000E491E61708F4A1CFFC013296859094907F
:10159000462F431B342F47E0349F800C911C1124AD
:1015A000F401329634913196E4913323A9F1EE237C
:1015B00099F1CC88F4013596E491AD884F894423A4
:1015C00001F10E2E000CFF0BE30FF11DCE9EA001CA
:1015D000CF9E500D11246C857D85460F571F688561
:1015E0007985641775076CF44E855F851D861C86AA
:1015F000FC013896E491AE9E400D511D11245F8789
:101600004E87EA88FB88088919894E855F856C8535
:101610007D85CE010E942008F4013496E4912C8946
:101620008C859D85E29F800D911D11248DCF6F9239
:101630007F928F929F92AF92BF92CF92DF92EF9262
:10164000FF920F931F93CF93DF93EC016B015A012D
:1016500039014801E881F9810284F385E02D09957B
:10166000E881F9810288F389E02D87019301A501C2
:10167000B601CE010995A501480D591D41505109EA
:10168000E881F9810288F389E02D9301B601CE014A
:101690000995E881F9810088F189E02D9401A5017F
:1016A000B601CE010995C60CD71CB601615071096F
:1016B000E881F9810088F189E02D9401A501CE012E
:1016C0000995E881F9810688F789E02DCE01DF913F
:1016D000CF911F910F91FF90EF90DF90CF90BF902F
:1016E000AF909F908F907F906F9009946F927F92B0
:1016F0008F929F92AF92BF92CF92DF92EF92FF9222
:101700000F931F93CF93DF935C01EB016A014901B3
:1017100038018701DC01ED91FC916217730719F51F
:10172000641675062CF0962D872D3A01C92ED82EF9
:101730009601261937092F5F3F4F048CF58DE02D58
:10174000A301BE01C5010995DF91CF911F910F91B2
:10175000FF90EF90DF90CF90BF90AF909F908F90D1
:101760007F906F9008954615570591F42617370717
:1017700024F0892D4B01C22FD82F9E012819390939
:101780002F5F3F4F068CF78DE02DA601B401DACF15
:101790000284F385E02D0995D501ED91FC91048833
:1017A000F589E02D83019401A601BE01C5010995CB
:1017B000D501ED91FC910688F789E02DC501DF91F7
:1017C000CF911F910F91FF90EF90DF90CF90BF903E
:1017D000AF909F908F907F906F900994EF92FF92BF
:1017E0000F931F93DC011A960D911C911B9718966D
:1017F0002D913C911997ED91FC9100A0F1A1E02D64
:101800007B0150E040E070E060E009951F910F918E
:10181000FF90EF9008954F925F926F927F928F9218
:101820009F92AF92BF92CF92DF92EF92FF920F936F
:101830001F93CF93DF936C012B015A0139014801AB
:10184000DC01ED91FC910284F385E02D0995E20124
:10185000640C751CD601ED91FC91C615D7055CF49E
:101860000088F189E02D87019401A501BE01C60120
:1018700009952196EFCF0688F789E02DC601DF9103
:10188000CF911F910F91FF90EF90DF90CF90BF907D
:10189000AF909F908F907F906F905F904F90099442
:1018A0008F929F92AF92BF92CF92DF92EF92FF9270
:1018B0000F931F93CF93DF93EC015B014A01690102
:1018C000E881F9810284F385E02D099595012C0DBD
:1018D0003D1D21503109E881F9810488F589E02D09
:1018E00078018401A401B501CE010995E881F9814F
:1018F0000688F789E02DCE01DF91CF911F910F91DE
:10190000FF90EF90DF90CF90BF90AF909F908F901F
:1019100009948F929F92AF92BF92CF92DF92EF92F3
:10192000FF920F931F93CF93DF93EC015B014A016A
:1019300069017801E881F9810284F385E02D099538
:10194000C80CD91C860101501109E881F98104886D
:10195000F589E02D9501A401B501CE010995E88135
:10196000F9810688F789E02DCE01DF91CF911F9193
:101970000F91FF90EF90DF90CF90BF90AF909F902E
:101980008F900994EF92FF920F931F93DC01ED91DA
:10199000FC9100A0F1A1E02D09951F910F91FF90FE
:1019A000EF9008950F931F93DC01ED91FC91068C4D
:1019B000F78DE02D09951F910F9108950F931F93B7
:1019C000DC01ED91FC91048CF58DE02D09951F91C2
:1019D0000F9108952F923F924F925F926F927F9254
:1019E0008F929F92AF92BF92CF92DF92EF92FF922F
:1019F0000F931F93CF93DF93CDB7DEB728970FB622
:101A0000F894DEBF0FBECDBF3C017C836B8358874B
:101A10004F839A01220F331F2F5F3F4FAB018F81FE
:101A20009885481B590B01E010E0B30186ED93E067
:101A30000E94DE0C81E090E02C012F813885421A53
:101A4000530AC9019195819591099C01220F331F79
:101A50003A832983F12CE12C22242394312C8B818D
:101A60009C8101969E838D832F813885E216F30633
:101A70000CF05EC0CF80D88457FC0BC0690131E008
:101A8000C31AD10889819A8102969A838983480E64
:101A9000591E9FEFE91AF90A22E0220E311C420C6E
:101AA000531CCE14DF04F4F04601880C991C3FEF60
:101AB000831A930A01E010E09401AB80BC80AC185B
:101AC000BD08A501B3016E0D7F1D86ED93E00E9458
:101AD000DE0C9401A501B3016E197F0986ED93E038
:101AE0000E94DE0C8F8198858C159D05F1F0BC015C
:101AF000660D771D01E010E0410192E0891A91081E
:101B00009401AD80BE80AE18BF08A50186ED93E0BC
:101B10000E94DE0CB3012F813885621B730B940188
:101B2000A50186ED93E00E94DE0CD886CF829CCF83
:101B300028960FB6F894DEBF0FBECDBFDF91CF91D0
:101B40001F910F91FF90EF90DF90CF90BF90AF90DB
:101B50009F908F907F906F905F904F903F902F90CD
:101B60000895DC01ED91FC910084F185E02D09944C
:101B70002F923F924F925F926F927F928F929F929D
:101B8000AF92BF92CF92DF92EF92FF920F931F938B
:101B9000CF93DF9300D000D000D0CDB7DEB73C01AB
:101BA0006A013E832D83FC82EB825801A41AB50A98
:101BB000B7FE03C0B194A194B1088D809E80861AAF
:101BC000970A97FE03C09194819491088A149B040C
:101BD0005CF0902F812F0D811E819D838E839C2D23
:101BE0008D2D6B01692F782F0C151D055CF09D81E3
:101BF0008E817E836D83692F782F902F812F8601B0
:101C0000C92ED82E1601201A310A2B012D813E81B2
:101C1000421A530A57FE03C051944194510871016E
:101C200037FE03C03FEFE31AF30AF594E7948D8182
:101C30009E81861797075CF5A1E0B0E0BA83A9837F
:101C4000C016D1064CF1D301ED91FC910484F585C9
:101C5000E02D2B813C81A8016D817E818A149B043B
:101C60001CF04D815E81B801C3010995E418F508A7
:101C7000F7FE0AC02D813E8189819A81280F391F84
:101C80003E832D83E20CF31C0F5F1F4FD9CF2FEF44
:101C90003FEF3A832983D4CF26960FB6F894DEBF60
:101CA0000FBECDBFDF91CF911F910F91FF90EF90AD
:101CB000DF90CF90BF90AF909F908F907F906F906C
:101CC0005F904F903F902F900895089520912D029E
:101CD000260F3327331F21323105ECF42091AF0258
:101CE000FC0190E080E0243069F082E00895A0914A
:101CF0002D022191AC01435F5D4FA40FB52FB11DA3
:101D00002C930196861798F380912D02680F6093AB
:101D10002D0280E0089581E008951092AF0281E0E5
:101D20008093AE021092890261E082E10E945B041E
:101D300061E083E10E945B04E9EBF0E080818E7F4B
:101D4000808380818D7F808388E48093B80085E4E0
:101D50008093BC000895CF93DF9391E090930C02A1
:101D60008823B9F0C091B800D091BA008091BC002E
:101D70008A7B8093BC0060E082E10E945B0460E0AB
:101D800083E10E945B040E948D0ED093BA00C09341
:101D9000B800DF91CF9108958F929F92AF92BF923A
:101DA000CF92DF92EF92FF920F931F93CF93DF9327
:101DB000D091D802D13208F0D7C0182FC091D702E5
:101DC0000E9413066B017C018091AF0281116BC0F0
:101DD00082E08093AF021093AE028FEF8093AD024A
:101DE0001092AC02D093AB02A7EBB2E0EBE8F2E0CA
:101DF00080E0D81391C010928A0280918A02CC0FA1
:101E0000C82BC0938A0280918902813009F088C072
:101E1000109289020E9413066B017C0180918A0254
:101E20008093BB008091B1029091B202A091B30265
:101E3000B091B402892B8A2B8B2BA1F00E94130640
:101E40000091B1021091B2022091B3023091B4021C
:101E50006C197D098E099F0906171707280739078E
:101E600008F442C08091BC0083FDD8CF85EC8093FC
:101E7000BC000E9413066B017C018091AF0282308E
:101E800009F450C08091AD028F3F09F46FC080917A
:101E9000AD02803209F46CC08091AD02803309F448
:101EA00069C084E026C08091B1029091B202A091F5
:101EB000B302B091B402892B8A2B8B2B09F484CF07
:101EC0000E9413068090B1029090B202A090B302DB
:101ED000B090B4026C197D098E099F098616970689
:101EE000A806B90608F070CF8091B0020E94AB0E30
:101EF00085E01092B6021092D8021092B502DF91DE
:101F0000CF911F910F91FF90EF90DF90CF90BF90F6
:101F1000AF909F908F9008959D9191938F5F69CF1F
:101F200085EEA5CF8091B1029091B202A091B3024B
:101F3000B091B402892B8A2B8B2B09F49ECF0E947F
:101F400013060091B1021091B2022091B3023091B8
:101F5000B4026C197D098E099F0906171707280717
:101F6000390708F08ACFC0CF81E0C3CF80E0C1CF6E
:101F700082E0BFCF83E0BDCFCF92DF92EF92FF929E
:101F80000F931F93CF93DF93DA01A00FB11FEC01E2
:101F9000EC81FD81EA17FB0710F490E024C07A0180
:101FA0006B0189819A81488151E05093B502409339
:101FB000D7021092B6021092D802012BF1F4898157
:101FC0009A81DC01ED91FC910280F381E02DA70163
:101FD000B6010995E816F90601F781E00E94CC0EDA
:101FE00091E08111DACF892FDF91CF911F910F916D
:101FF000FF90EF90DF90CF90089521153105F9F211
:10200000DC01ED91FC910280F381E02D41E050E094
:10201000B9010995019709F6D2CF2F923F924F92BD
:102020005F926F927F928F929F92AF92BF92CF9268
:10203000DF92EF92FF920F931F93CF93DF93CDB771
:10204000DEB72A970FB6F894DEBF0FBECDBF7C0176
:1020500080E48D83D70116962D913C91C901079696
:1020600097FD079673E0959587957A95E1F78987AF
:10207000F70144815581242F83A594A597FD0796E8
:1020800063E0959587956A95E1F7382ED701999683
:102090004C90241508F4442EF70165A576A577FD2C
:1020A00060E0DA01BB27B887AF83842C912C540100
:1020B000489FA00CB11C11242F5F260F2A87B985D9
:1020C0003B1608F097C0F701C7A0D0A4CA0CDB1CD0
:1020D00084815A84581A5418058CF68DE02D90EBA3
:1020E000930DD701DA968C919401280F311D44E0AD
:1020F000359527954A95E1F7205F840D8F703097CD
:1021000009F456C064807580B1E06B1A71081A82B8
:1021100019829A832B838C83F701678D70A181A12B
:1021200092A16933F0E97F07FDE08F07910510F474
:102130000E94A50610E000E030E020E044E050E01E
:10214000BE016F5F7F4FD7015D968D919C910E947C
:10215000BC0F6E825520B1F02E80521408F4252C4D
:10216000622C712C01E010E09E012B5F3F4FA30118
:10217000B601F701858D968D0E94BC0FC60CD71C49
:102180005218E8CFD70193966D917D918D919C91D6
:1021900096976933B0E97B07BDE08B07910510F492
:1021A0000E94A5063394EF81F885AE0EBF1E87CF3F
:1021B00099832A838B8360E0F70181A90E945B04E5
:1021C00043E050E0BE016F5F7F4FD7015B968D917A
:1021D0009C910E94BF0561E0F70181A90E945B0408
:1021E000452D50E0B601D7015B968D919C910E94E0
:1021F000BF05D8CF80E094E0D7019A969C938E9348
:1022000099979C969C938E939B978FEF9FEF9E96AA
:102210009C938E939D97D0969C938E939F972A968E
:102220000FB6F894DEBF0FBECDBFDF91CF911F91E7
:102230000F91FF90EF90DF90CF90BF90AF909F9065
:102240008F907F906F905F904F903F902F90089568
:102250000F931F93CF93DF9300D01F92CDB7DEB7BC
:102260008C016B83FC01858D968D0097B1F01A82ED
:1022700019826A8310E000E030E020E042E050E0A4
:10228000BE016F5F7F4F0E94BC0F0F900F900F90A9
:10229000DF91CF911F910F91089560E081A90E9475
:1022A0005B0441E050E0BE016D5F7F4FF801838D1C
:1022B000948D0E94BF05E9CF611103C066EA0C94BA
:1022C000281167EAFCCFCF93DF93EC018B81882341
:1022D000A1F0888191E09093B5028093D70210928B
:1022E000B6021092D80281E00E94CC0E91E08111DA
:1022F00090E0892FDF91CF910895109256021092AD
:1023000055021092B6021092D8020E948D0E86E7F6
:1023100096E0909354028093530287E796E090935F
:1023200052028093510281E08B83CE010E9463119F
:10233000982F8111CECFDDCFE091560280915502CA
:10234000E81730F4F0E0E451FE4F808190E008950A
:102350008FEF9FEF089590915602809155022FEFD5
:102360003FEF981748F4E92FF0E0E451FE4F208149
:1023700030E09F5F90935602C90108958091550205
:1023800090915602891B990B0895CF92DF92EF929C
:10239000FF920F931F93CF93DF937C01CB018A01B0
:1023A0002091B502222389F0EB016B01C40ED51EEA
:1023B000CC15DD0569F06991D701ED91FC91019093
:1023C000F081E02DC7010995F3CF642F0E94660EBE
:1023D000C801DF91CF911F910F91FF90EF90DF9097
:1023E000CF900895CF93DF931F92CDB7DEB7698367
:1023F0002091B5022223F9F02091D802203258F022
:1024000021E030E0FC013383228390E080E00F90F4
:10241000DF91CF9108958091B602E82FF0E0E95462
:10242000FD4F998190838F5F8093B6028093D8028D
:1024300081E090E0ECCF61E0CE0101960E94660E53
:10244000F7CF90E080E00895FC0101900020E9F7CB
:102450003197AF01481B590BBC0186ED93E00C94FA
:1024600078068F929F92AF92BF920F931F93CF9354
:10247000DF93CDB7DEB7A1970FB6F894DEBF0FBEDE
:10248000CDBF19A2423008F44AE08E010F5D1F4F04
:10249000842E912CB12CA12CA50194010E94A01E88
:1024A000E62FB901CA01EA30F4F4E05DD801EE93F9
:1024B0008D01232B242B252B79F790E080E01097BA
:1024C00019F0CD010E942412A1960FB6F894DEBF38
:1024D0000FBECDBFDF91CF911F910F91BF90AF90F5
:1024E0009F908F900895E95CE1CFCF93DF930E9496
:1024F0002412EC0189E991E00E9424128C0F9D1FA7
:10250000DF91CF9108950E94FC1FCF92DF92EF924E
:10251000FF926B017C01C114D104E104F10441F08C
:102520000E94161EA70196010E946E1E6B017C017F
:10253000C701B601FF90EF90DF90CF900895CF9242
:10254000DF92EF92FF92CF93DF93C091C903C43122
:1025500008F0D2C091E09C0F9093C903D0E04423CF
:1025600009F4D1C060910301C62ED12CF12CE12CCD
:1025700069E170E080E090E00E9485126C50710982
:1025800081099109C60ED71EE81EF91E48E028E011
:10259000C216D104E104F10454F160910301C62E86
:1025A000D12CF12CE12C69E170E080E090E00E94F8
:1025B00085126C50710981099109C60ED71EE81E5B
:1025C000F91E48E789E7C816D104E104F1047CF458
:1025D00069E170E080E090E00E948512AB01BC01EF
:1025E0004C5051096109710980910301480F8CE039
:1025F0008C9FF0018D9FF00D1124E752FD4F408319
:1026000060910201C62ED12CF12CE12C69E170E021
:1026100080E090E00E9485126C5071098109910957
:10262000C60ED71EE81EF91E48E028E0C216D104E7
:10263000E104F10454F160910201C62ED12CF12C79
:10264000E12C69E170E080E090E00E9485126C501E
:10265000710981099109C60ED71EE81EF91E48E7C7
:1026600089E7C816D104E104F1047CF469E170E063
:1026700080E090E00E948512AB01BC014C505109F2
:102680006109710980910201480F8CE08C9FF00173
:102690008D9FF00D1124E752FD4F41830E946A0681
:1026A0006B017C012CE02C9FC0012D9F900D11240B
:1026B000EC01C752DD4FCA82DB82EC82FD826CE204
:1026C00071E080E090E00E94851222EEC20E24E0CC
:1026D000D21EE11CF11CC60ED71EE81EF91ECE82CA
:1026E000DF82E886F9861A8663E070E080E090E099
:1026F0000E9485126A5F6B87DF91CF91FF90EF9008
:10270000DF90CF9008959CE09C9FF0019D9FF00D7D
:102710001124E752FD4F80836183C0CF0F931F9335
:10272000CF93DF93EC018DE391E0998388838FA1B0
:1027300098A5009721F00E94731F18A61FA20B8D69
:102740001C8D0115110551F0F801828193810097CC
:1027500011F00E94731FC8010E94731F8D8D9E8D02
:10276000009731F0DF91CF911F910F910C94731F5F
:10277000DF91CF911F910F910895CF93DF93EC01DB
:102780000E948E13CE01DF91CF910C94731FCF93D3
:10279000DF93EC012FA98C819D81289FB001299F97
:1027A000700D11242E813F81C901079697FD079670
:1027B00023E0959587952A95E1F7689FA001699F89
:1027C000500D789F500D112470E060E08FA198A506
:1027D0000E9401201AA619A61CA61BA68C819D8109
:1027E00001979EA78DA78E819F81019798AB8FA798
:1027F000DF91CF91089585ED8093BC008091B10267
:102800009091B202A091B302B091B4020796A11DBB
:10281000B11D23E0B695A795979587952A95D1F791
:102820002091BC0024FD03C01092AF020895409196
:10283000B1025091B2026091B3027091B402452B83
:10284000462B472B69F30097A105B10541F02AE219
:102850002A95F1F700C00197A109B109E1CF809154
:10286000B0020C94AB0E1F920F920FB60F92112470
:102870002F933F938F939F93AF93BF938091810248
:1028800090918202A0918302B091840230918002E3
:1028900023E0230F2D3758F50196A11DB11D20937C
:1028A00080028093810290938202A0938302B0936E
:1028B00084028091850290918602A0918702B09156
:1028C00088020196A11DB11D809385029093860216
:1028D000A0938702B0938802BF91AF919F918F918F
:1028E0003F912F910F900FBE0F901F90189526E8E3
:1028F000230F0296A11DB11DD2CF1F920F920FB6CA
:102900000F9211242F933F934F935F936F937F9375
:102910008F939F93AF93BF93EF93FF9380915C024C
:1029200090915D02A0915E02B0915F02892B8A2B8B
:102930008B2BD1F190915702E0915802F0915902FE
:1029400080818927808380915C0290915D02A091B3
:102950005E02B0915F02181619061A061B069CF457
:1029600080915C0290915D02A0915E02B0915F0245
:102970000197A109B10980935C0290935D02A09335
:102980005E02B0935F02FF91EF91BF91AF919F9173
:102990008F917F916F915F914F913F912F910F9008
:1029A0000FBE0F901F90189580910001E8E4F7E0AA
:1029B000E4919FEF90930001E13051F030F0E2306C
:1029C00069F060E00E945B04DECF10926E00F9CFE8
:1029D00090916F009D7F90936F00F3CF9091700066
:1029E0009D7F9093700091E09093B0009091B10022
:1029F000987F94609093B1001092B300E2CF1F9241
:102A00000F920FB60F9211242F933F934F935F9322
:102A10006F937F938F939F93AF93BF93EF93FF93A6
:102A20008091B900887F803609F44AC0F0F5883279
:102A300009F4A7C018F5803109F49BC0B8F48823C5
:102A400009F4F9C0883009F494C0FF91EF91BF9167
:102A5000AF919F918F917F916F915F914F913F9136
:102A60002F910F900FBE0F901F901895883109F489
:102A700088C0803251F78093AD0214C0803409F4CD
:102A80009DC040F48033B9F38833F9F68093AD02EA
:102A900085ECB0C0803509F485C0883509F496C04E
:102AA000883499F60E94FB13D0CF883909F48CC082
:102AB00038F5883729F050F4883611F0803729F638
:102AC00083E08093AF0210924F0257C0883809F418
:102AD0007BC0803919F0803809F0B7CF80914F0260
:102AE000803208F071C0E0914F0281E08E0F809338
:102AF0004F028091BB00F0E0E15DFD4F80833DC05F
:102B0000803B39F0E0F4803A09F479C0883A09F062
:102B10009CCF84E08093AF0210922E0210922D027F
:102B2000E0915302F0915402099580912D02811198
:102B30000FC081E080932D0210920D0209C0803CED
:102B400009F4A6CF883C09F4A3CF883B09F07DCFD8
:102B5000E0912E0281E08E0F80932E02F0E0E35F81
:102B6000FD4F80818093BB0090912E0280912D02B9
:102B700029C080918A028093BB0085EC8093BC00C1
:102B800064CF9091AC028091AB02981758F5E09118
:102B9000AC0281E08E0F8093AC02F0E0E557FD4F70
:102BA0008081E9CFE091AC0281E08E0F8093AC028E
:102BB0008091BB00F0E0E557FD4F80839091AC021F
:102BC0008091AB029817C8F285E8D8CFE091AC02AB
:102BD00081E08E0F8093AC028091BB00F0E0E5575E
:102BE000FD4F80838091AE0281115CCF81E08093A4
:102BF000890284EA8093BC001092AF0226CF85EC54
:102C00008093BC001092AF0280914F02803230F46A
:102C1000E0914F02F0E0E15DFD4F108260914F02C4
:102C200070E0E0915102F09152028FE292E009953A
:102C300010924F020ACF1092AD0234CFAAECB3E04B
:102C400013961C921E92129748EE53E060E070E0DB
:102C500014964D935D936D937C9317978BE291E05F
:102C600011969C938E93E6EDF3E01382128220E896
:102C700030E03583248380E490E097838683318736
:102C8000208793878287168A15861486178616866C
:102C900021E0258B248B8FEF9FEF938B828B918B81
:102CA000808B278B108E128E118E148E138E168EA3
:102CB000158E40E85AE166E070E0478F50A361A3AB
:102CC00072A340EA56E861E070E043A354A365A311
:102CD00076A310A617A292AB81AB94AB83AB96AB55
:102CE00085AB27ABB1AFA0AF12AE8BE691E091837D
:102CF00080830895CF93DF93CDB7DEB72D970FB6BE
:102D0000F894DEBF0FBECDBF789484B5826084BDD9
:102D100084B5816084BD85B5826085BD85B58160DF
:102D200085BD80916E00816080936E00109281005D
:102D30008091810082608093810080918100816018
:102D400080938100809180008160809380008091D9
:102D5000B10084608093B1008091B0008160809365
:102D6000B00080917A00846080937A0080917A002C
:102D7000826080937A0080917A00816080937A00EB
:102D800080917A00806880937A001092C10062E09E
:102D900082E00E94890462E084E00E94890461E08C
:102DA00083E00E94890461E089E00E94890461E077
:102DB0008AE00E94890461E08BE00E94890480918E
:102DC000FD039091FE03892B09F48DC080910B04C3
:102DD00090910C0497FD24C061E00E94890461E099
:102DE00080910B040E945B046AE070E080E090E058
:102DF0000E94380660E080910B040E945B046AE048
:102E000070E080E090E00E94380661E080910B0461
:102E10000E945B046AE070E080E090E00E94380667
:102E2000E0900E04F0900F04E114F10409F4F1C1F4
:102E300086E090E00E94D71E8C018CE3D8018C9331
:102E40001296FC92EE92119713961C92139780E2C1
:102E500090E015969C938E9314971093F40300932F
:102E6000F3030115110509F467C010925602109280
:102E700055021092B6021092D8020E948D0E86E77B
:102E800096E0909354028093530287E796E09093E4
:102E900052028093510281E0F8018383C8010E94AD
:102EA0006311882309F448C086ED93E00E94C7139C
:102EB000109200041092FF03109202041092010479
:102EC0008091DA039091DB0301979093040480933F
:102ED00003048091DC039091DD0301979093060435
:102EE0008093050429C020910D048091DA0390910C
:102EF000DB03289FA001299F500D11242091DC03A2
:102F00003091DD03C901079697FD0796B3E09595CB
:102F10008795BA95E1F79C01429FC001439F900DB0
:102F2000529F900D11240E94D71E9093FE03809310
:102F3000FD03892B09F04ACF82E080931004809131
:102F4000DC039091DD037C01F0E2EF1AF108F7FE5B
:102F500004C07C012FE1E21AF108F594E794009196
:102F6000DA031091DB030357110917FF02C00F5F4B
:102F70001F4F15950795B12CA12C912CD12CC12C4C
:102F8000C60187709927990C892B59F4F60163E0E3
:102F9000F595E7956A95E1F7EA0DFB1DE859FA4FBB
:102FA000949097FE0AC021E030E0A701B601600FBF
:102FB000711F86ED93E00E94B10D3FEFC31AD30A53
:102FC00083E7C816D104E1F69FEFE91AF90AAFE0EA
:102FD000AA0EB11CB0EEAB16B1E0BB0679F680913B
:102FE000F3039091F403009709F494C1198201E06E
:102FF00010E09E012F5F3F4F49E150E06EE071E02D
:103000000E94BC0F882359F064E670E080E090E0F5
:103010000E9438066FEA86ED93E00E94281168EC62
:1030200070E080E090E00E94380686ED93E00E9418
:10303000C71386ED93E00E940D1081E08093EA03B0
:103040008093EB0381E090E09093E9038093E803A1
:103050009093E7038093E6030E946A0660937202EE
:10306000709373028093740290937502609376025A
:103070007093770280937802909379020E946A0697
:1030800060937C0270937D0280937E0290937F0216
:103090008FE00E94C5048C018EE00E94C5049C0153
:1030A00090910201043611050CF044C19A5F90938F
:1030B000020190910301243631050CF041C19A5F61
:1030C0009093030180910301873708F086E78A30E7
:1030D00008F48AE08093030180910201873308F0AD
:1030E00086E38A3008F48AE08093020184E00E943B
:1030F0003204892BC9F480917A0290917B02009767
:1031000009F024C121E030E030937B0220937A0261
:103110000E946A0660937202709373028093740235
:10312000909375021092C90380917002882389F0F0
:103130000E946A0600916C0210916D0220916E024D
:1031400030916F02601771078207930710F0109299
:10315000700280910101811112C00E946A060091E3
:1031600068021091690220916A0230916B02601727
:1031700071078207930718F091E09093010182E0B4
:103180000E943204892B51F480917A0290917B0243
:10319000029721F410927B0210927A0210E000E074
:1031A000D090C903ED2CF12C0E151F050CF0DBC1DE
:1031B000ACE0A09FC001A19F900D1124FC01E7523B
:1031C000FD4F7F0186809780A084B184828588230B
:1031D00009F4CFC40E946A06681979098A099B0913
:1031E0006D3271408105910588F0DA94D092C9035F
:1031F0002CE02D9DF0011124E752FD4F8CE0D7010A
:1032000001900D928A95E1F7015011090F5F1F4F50
:10321000C7CF0091F1031091F2030115110509F4D4
:103220008BCED8011B968C918F3F41F061E00E94BC
:10323000890461E0F80183850E945B04D8018D91C7
:103240009C91892B09F43CC0FFB6F8948091500200
:10325000811127C0E1E7F7E08491E5E8F7E0949178
:10326000E82FF0E0EE0FFF1FE75BF84FA591B49158
:10327000EC91E92321F461E08AE00E945B0461E0C3
:103280008AE00E9489048CB580618CBD8CB5806415
:103290008CBD61E08DE00E94890461E08BE00E94BA
:1032A0008904809150028F5F80935002FFBE81E0BD
:1032B000F801838F61E0809107040E948904F4CDB6
:1032C00061E0F80184850E948904D8011A968C91E6
:1032D0001A978B7FD9F460E01C968C910E945B0456
:1032E000D8011D968C918F3F41F061E00E948904C6
:1032F00061E0F80185850E945B04D8011E968C91DF
:103300008F3FA9F260E00E948904D1CF61E0F8010B
:103310008485E4CF60E0809107040E945B0449E16A
:1033200050E06EE071E08091F1039091F2030E9411
:10333000BF0568CE053813400CF4BBCE9650B7CE0F
:10334000253833400CF4BECE9650BACE019709F022
:10335000EBCE80910101882309F4E6CE31E0309371
:1033600070020E946A0668517C4F8F4F9F4F609396
:103370006C0270936D0280936E0290936F021092B4
:1033800001010E946A066053784F8F4F9F4F6093F0
:1033900068027093690280936A0290936B02809135
:1033A0000001833051F5E8E4F7E0149117FDC0CE39
:1033B00061E083E00E948904112309F494C0123073
:1033C00009F0A9C08091B100887F83608093B1002B
:1033D0008FEC8093B30080E690E0A0E0B0E08093B3
:1033E0005C0290935D02A0935E02B0935F028091B5
:1033F000700082608093700097CE8F3F09F098CE66
:1034000083E080930001E8E4F7E014911F3F09F4A2
:103410008FCE113029F150F0123009F440C017FD61
:1034200087CE61E083E00E948904C9CF14BC15BC3B
:1034300084B5826084BD85B5816085BDEAE6F7E02C
:103440008491E82FF0E0EE0FFF1FED5AF84F8591C1
:103450009491EEE7F7E0849180935B0210E0A8CFAF
:10346000109280001092810080918100886080938A
:10347000810080918100816080938100EAE6F7E01D
:103480008491E82FF0E0EE0FFF1FED5AF84F859181
:103490009491EEE7F7E0849180935A0289CF1092DD
:1034A000B0001092B1008091B00082608093B000B3
:1034B0008091B10081608093B100EAE6F7E08491E9
:1034C000E82FF0E0EE0FFF1FED5AF84F8591949131
:1034D0009093590280935802EEE7F7E0849180932D
:1034E000570212E065CF85B5887F836085BD87E68A
:1034F00087BD80E690E0A0E0B0E080936402909306
:103500006502A0936602B093670280916E008260AC
:1035100080936E0009CE1130F1F480918100887F94
:1035200081608093810029E03AE130938900209303
:10353000880080E690E0A0E0B0E080936002909385
:103540006102A0936202B093630280916F00826077
:1035500080936F00E9CD123021F01111E5CD89E0A3
:10356000C7CF89E036CF8091700220917A023091E6
:103570007B022130310509F08AC081118AC0409157
:10358000030150E04A01F4E08F1A910860910201B2
:1035900070E08B0104501109E9EDF2E0B0E0A0E029
:1035A0004C5F5F4F6C5F7F4FAE15BF0509F45DC088
:1035B0008285882309F468C0B384818190E02081EA
:1035C00030E0742EA52E2417350714F4722EA32E86
:1035D000C72CDA2CC814D9040CF464012C193D0949
:1035E000762EA72E8617970714F4782EA92EC72CAF
:1035F000DA2CC016D1060CF468018C199D09229FA3
:103600006001239FD00CD00C1124889F9001899FCA
:10361000300D300D1124C20ED31EBB9CC0011124ED
:103620008C159D058CF182E090E090937B02809355
:103630007A0260917C0270917D0280917E0290916D
:103640007F020091720210917302209174023091F6
:103650007502601B710B820B930B28EE33E040E088
:1036600050E00E94A01E20937102809101018823E6
:1036700009F460C060E089E00E945B0461E08AE0D8
:103680000E945B0460E00EC011963C968DCF8823AB
:1036900061F360E089E00E945B0460E08AE00E94E0
:1036A0005B0461E08BE00E945B0486ED93E00E9486
:1036B000C71380917A0290917B02009709F040C075
:1036C0001092E3031092E2031092E5031092E403D8
:1036D00022E02093EA032093EB038CE991E00E941F
:1036E000751231E03093EA033093EB031092E30359
:1036F0001092E20380E290E09093E5038093E4036C
:1037000087EA91E00E94751281E090E09093E903CE
:103710008093E8039093E7038093E60386ED93E0BC
:103720000E940D1080E090E0892B09F4A7CC0E9444
:103730000000A4CC61E089E00E945B0460E09FCFC0
:103740008130910509F0F6C180917C0290917D0253
:10375000A0917E02B0917F020091760210917702D3
:1037600020917802309179026C017D01C01AD10A52
:10377000E20AF30A0091720210917302209174021E
:1037800030917502BC01CD01601B710B820B930B54
:10379000660F771F881F991F28EE33E040E050E046
:1037A0000E94A01E84EF91E0A0E0B0E0821B930B8A
:1037B000A40BB50B82339105A105B10520F482E37A
:1037C00090E0A0E0B0E08C159D05AE05BF0578F552
:1037D0006CE270E080E090E00E9485126B017C0159
:1037E00060E670E080E090E00E948512262FC7011D
:1037F000B601665F7F4F8F4F9F4F40E080E1820FA1
:103800000E949F1241E060E080E00E949F12809140
:103810007C0290917D02A0917E02B0917F02809304
:10382000760290937702A0937802B0937902A9ED83
:10383000B2E0BD83AC831F821E828091C903EE81FA
:10384000FF818E171F0609F00CF4D7C0AC81BD8133
:103850001B960C911B9710E01196EC901197F12C90
:103860006C90712C1A968C918111B6C022242394ED
:10387000312C201A310A90E080E0801B910BFC0172
:10388000EE0FFF1FF987E88721E030E0A701400F26
:10389000511FB30186ED93E00E94B10D21E030E0AD
:1038A000A701401B510BB30186ED93E00E94B10DBF
:1038B00021E030E0A701B301600F711F86ED93E0B6
:1038C0000E94B10D21E030E0A701B301601B710B34
:1038D00086ED93E00E94B10D512C412C21E030E0A7
:1038E0003B832A837B866A86FD86EC8640165106DA
:1038F0000CF077C037FC09C0015011098885998503
:10390000029699878887280E391E9FEF491A590A0F
:10391000AA81BB811296BB83AA832A0E3B1E8A848E
:103920009B84840C951C21E030E06701C00ED11E01
:10393000A601B40186ED93E00E94B10DAA84BB8478
:10394000A418B50821E030E0A601B50186ED93E0AA
:103950000E94B10D21E030E06701C01AD10AA60132
:10396000B40186ED93E00E94B10D21E030E0A601A4
:10397000B50186ED93E00E94B10DCC84DD84C40CCA
:10398000D51C21E030E0A6015801A60CB71CB501FA
:1039900086ED93E00E94B10D21E030E0A6016301C5
:1039A000C01AD10AB60186ED93E00E94B10D8C8455
:1039B0009D848418950821E030E0A401B50186EDCE
:1039C00093E00E94B10D21E030E0A401B60186ED44
:1039D00093E00E94B10D8ACFA801B701C3010E94F4
:1039E000EA0CEE81FF813196FF83EE832C813D81CD
:1039F000245F3F4F3D832C8320CF6091020170E014
:103A00008091030190E020917002222309F45DC0AF
:103A100041E050E004970E94EA0C6091020170E0DE
:103A20008091030190E041E050E004960E94EA0C8E
:103A3000609102016450770B8091030141E050E0F6
:103A400090E00E94EA0C6091020170E06C5F7F4F91
:103A50008091030141E050E090E00E94EA0C609107
:103A6000020170E08091030143E050E090E00E9489
:103A7000EA0C1092E3031092E2031092E503109215
:103A8000E4038AEB91E00E94751260917C027091D0
:103A90007D0280917E0290917F02009172021091CE
:103AA00073022091740230917502601B710B820BBE
:103AB000930B28EE33E040E050E00E94A01ECA01C4
:103AC000B9014AE00E94311229CE2091010142E061
:103AD00050E0222369F10E94EA0C6091020170E03B
:103AE0008091030142E050E08350990B0E94EA0C60
:103AF0006091020170E08091030190E042E050E0AB
:103B000003960E94EA0C609102016350770B80914A
:103B1000030142E050E090E00E94EA0C6091020153
:103B200070E06D5F7F4F8091030142E050E09ECFD7
:103B30000397DCCF029709F0F1CD1092E3031092C6
:103B4000E20380E290E09093E5038093E40382EC4B
:103B500091E00E9475128CEC91E00E9475128EED3E
:103B600091E00E9424126091710270E090E080E088
:103B7000A8CF0E946A06681579058A059B0508F496
:103B800045CBE1E0D7011A96EC9340CB86ED93E06C
:103B90000C948E138F929F92AF92BF92CF92DF922E
:103BA000EF92FF92CF93DF93EC01688179818A8154
:103BB0009B81611571058105910521F464E279ED20
:103BC0008BE597E02DE133EF41E050E00E946E1E5F
:103BD00049015A019B01AC01A7EAB1E40E948D1E84
:103BE0006B017C01ACEEB4EFA50194010E949B1E19
:103BF000C60ED71EE81EF91EF7FE06C081E0C81AE1
:103C0000D108E10880E8F80AC882D982EA82FB82FA
:103C1000C701B6019F77DF91CF91FF90EF90DF90C2
:103C2000CF90BF90AF909F908F9008958F929F926A
:103C3000AF92BF92CF92DF92EF92FF926091040118
:103C40007091050180910601909107016115710540
:103C50008105910521F464E279ED8BE597E02DE192
:103C600033EF41E050E00E946E1E49015A019B0172
:103C7000AC01A7EAB1E40E948D1E6B017C01ACEEA1
:103C8000B4EFA50194010E949B1EC60ED71EE81E2C
:103C9000F91EF7FE06C081E0C81AD108E10880E8E5
:103CA000F80AC0920401D0920501E0920601F09258
:103CB0000701C701B6019F77FF90EF90DF90CF908B
:103CC000BF90AF909F908F90089560930401709380
:103CD000050180930601909307010895052E97FB37
:103CE0001EF400940E94851E57FD07D00E94A01E5E
:103CF00007FC03D04EF40C94851E509540953095EA
:103D000021953F4F4F4F5F4F089590958095709547
:103D100061957F4F8F4F9F4F08950E94C21EA59FB0
:103D2000900DB49F900DA49F800D911D11240895B6
:103D3000B7FF0C948D1E0E948D1E821B930B08955D
:103D4000A1E21A2EAA1BBB1BFD010DC0AA1FBB1F9F
:103D5000EE1FFF1FA217B307E407F50720F0A21B11
:103D6000B30BE40BF50B661F771F881F991F1A947E
:103D700069F760957095809590959B01AC01BD01A8
:103D8000CF010895A29FB001B39FC001A39F700D02
:103D9000811D1124911DB29F700D811D1124911D53
:103DA0000895EE0FFF1F0590F491E02D09940F93F5
:103DB0001F93CF93DF938230910510F482E090E05F
:103DC000E0911304F091140430E020E0B0E0A0E0B2
:103DD000309799F42115310509F44AC0281B390B95
:103DE00024303105D8F58A819B816115710589F1EF
:103DF000FB0193838283FE0111C0408151810281C6
:103E0000138148175907E0F04817590799F410979C
:103E100061F012960C93129713961C933296CF0171
:103E2000DF91CF911F910F91089500931304109388
:103E30001404F4CF2115310551F04217530738F01F
:103E4000A901DB019A01BD01DF01F801C1CFEF013A
:103E5000F9CF9093140480931304CDCFFE01E20FA9
:103E6000F31F819391932250310939832883D7CF4F
:103E70002091110430911204232B41F420910A0166
:103E800030910B013093120420931104209108010A
:103E9000309109012115310541F42DB73EB740910C
:103EA0000C0150910D01241B350BE0911104F09190
:103EB0001204E217F307A0F42E1B3F0B2817390753
:103EC00078F0AC014E5F5F4F2417350748F04E0F76
:103ED0005F1F5093120440931104819391939FCFDD
:103EE000F0E0E0E09CCFCF93DF930097E9F0FC0196
:103EF000329713821282A0911304B0911404ED0141
:103F000030E020E01097A1F420813181820F931FCF
:103F100020911104309112042817390709F061C06B
:103F2000F0931204E0931104DF91CF910895EA0118
:103F3000CE17DF07E8F54A815B819E0141155105E7
:103F4000B1F7E901FB83EA8349915991C40FD51F69
:103F5000EC17FD0761F4808191810296840F951F13
:103F6000E90199838883828193819B838A83F0E02E
:103F7000E0E012968D919C9113970097B9F52D91E1
:103F80003C911197CD010296820F931F209111044D
:103F9000309112042817390739F6309751F51092ED
:103FA000140410921304B0931204A0931104BCCF14
:103FB000D383C28340815181840F951FC817D907CD
:103FC00061F44E5F5F4F88819981480F591F51837B
:103FD00040838A819B81938382832115310509F077
:103FE000B0CFF0931404E09313049ECFFD01DC01E5
:103FF000C0CF13821282D7CF81E090E0F8940C9466
:104000000820DC0101C06D9341505040E0F7089555
:1040100013E0C3EDD3E004C0FE010E94D11E21963F
:0A402000C43DD107C9F7F894FFCFA3
:10402A00FF01202001000000000015048000AED529
:10403A0080A83FD30040AD8BA1C8DA1281FFD91FF7
:10404A00DB4033A62010A400000000F211C51121A4
:10405A0012FE03BE11AB119C1100000000450A7844
:10406A00062112650EFB06FE03B10DC20CDE0CD250
:10407A000CB80DFE030B085C11890C500C0B0CEEEE
:10408A000B760B170B831200000000450A780621F5
:10409A0012650EFB06FE03B10DC20CDE0CD20CB883
:1040AA000DFE030B085C11890C500C0B0CEE0B7601
:1040BA000B170B0D108E13BD130D0A005375727674
:1040CA006976652121210050726573732042544E2E
:1040DA0020746F2073746172740053434F52453ACF
:1040EA00200047414D45204F564552005072657396
:1040FA007320535720746F20726573657400466984
:0C410A006E616C2053636F72653A2000F8
:00000001FF
