:020000040000FA
:100000000C944B040C9473040C9473040C947304BC
:100010000C9473040C9473040C9473040C940316E2
:100020000C9473040C9473040C9473040C94730474
:100030000C9473040C9473040C9473040C94730464
:100040000C94B9150C9473040C9473040C947304FD
:100050000C9473040C9473040C9473040C94730444
:100060000C9485160C9473042E2E2E0054484520B3
:100070004E4558547E00594F55204C4F5345210052
:10008000424F502049542100534D41534820495478
:100090002100545259204C4546542100474F2052CC
:1000A0004947485421004C455420444F574E2100A5
:1000B000464C59205550210000000000003E5B4F87
:1000C0005B3E3E6B4F6B3E1C3E7C3E1C183C7E3CB8
:1000D000181C577D571C1C5E7F5E1C00183C1800C6
:1000E000FFE7C3E7FF0018241800FFE7DBE7FF3056
:1000F000483A060E2629792926407F050507407FC4
:1001000005253F5A3CE73C5A7F3E1C1C08081C1C36
:100110003E7F14227F22145F5F005F5F06097F012C
:100120007F006689956A606060606094A2FFA29417
:1001300008047E040810207E201008082A1C0808E5
:100140001C2A08081E101010100C1E0C1E0C303833
:100150003E3830060E3E0E06000000000000005F34
:1001600000000007000700147F147F14242A7F2A50
:100170001223130864623649562050000807030012
:10018000001C2241000041221C002A1C7F1C2A085E
:10019000083E0808008070300008080808080000C1
:1001A00060600020100804023E5149453E00427F35
:1001B000400072494949462141494D331814127F84
:1001C0001027454545393C4A494931412111090724
:1001D0003649494936464949291E000014000000A5
:1001E0004034000000081422411414141414004177
:1001F00022140802015909063E415D594E7C121134
:10020000127C7F494949363E414141227F4141416B
:100210003E7F494949417F090909013E41415173E6
:100220007F0808087F00417F41002040413F017F57
:10023000081422417F404040407F021C027F7F041F
:1002400008107F3E4141413E7F090909063E415168
:10025000215E7F09192946264949493203017F0158
:10026000033F4040403F1F2040201F3F4038403F59
:10027000631408146303047804036159494D43006F
:100280007F4141410204081020004141417F0402A6
:10029000010204404040404000030708002054543D
:1002A00078407F284444383844444428384444281B
:1002B0007F385454541800087E090218A4A49C786E
:1002C0007F0804047800447D40002040403D007FCA
:1002D0001028440000417F40007C047804787C08AA
:1002E0000404783844444438FC182424181824247E
:1002F00018FC7C08040408485454542404043F4463
:10030000243C4040207C1C2040201C3C4030403C91
:1003100044281028444C9090907C4464544C4400F1
:100320000836410000007700000041360800020155
:100330000204023C2623263C1EA1A161123A404041
:10034000207A3854545559215555794122545478BE
:1003500042215554784020545579400C1E52721257
:1003600039555555593954545459395554545800E0
:1003700000457C410002457D420001457C407D12E4
:1003800011127DF0282528F07C5455450020545446
:100390007C547C0A097F4932494949323A444444F1
:1003A0003A324A4848303A4141217A3A424020782C
:1003B000009DA0A07D3D4242423D3D4040403D3C2D
:1003C00024FF2424487E4943662B2FFC2F2BFF0952
:1003D00029F620C0887E0903205454794100004446
:1003E0007D413048484A32384040227A007A0A0A31
:1003F000727D0D19317D2629292F282629292926A4
:1004000030484D4020380808080808080808382FE8
:1004100010C8ACBA2F102834FA00007B0000081472
:100420002A142222142A14085500550055AA55AA48
:1004300055AAFF55FF55FF000000FF00101010FFE8
:1004400000141414FF001010FF00FF1010F010F043
:10045000141414FC001414F700FF0000FF00FF1434
:1004600014F404FC141417101F10101F101F141480
:10047000141F00101010F0000000001F10101010CA
:100480001F10101010F010000000FF1010101010BE
:1004900010101010FF10000000FF140000FF00FFFC
:1004A00000001F10170000FC04F414141710171498
:1004B00014F404F40000FF00F714141414141414BA
:1004C000F700F7141414171410101F101F1414142D
:1004D000F4141010F010F000001F101F0000001F97
:1004E00014000000FC140000F010F01010FF10FFCA
:1004F000141414FF141010101F00000000F010FF5F
:10050000FFFFFFFFF0F0F0F0F0FFFFFF0000000042
:1005100000FFFF0F0F0F0F0F3844443844FC4A4AC6
:100520004A347E02020606027E027E02635549417B
:10053000633844443C04407E201E2006027E0202B2
:1005400099A5E7A5991C2A492A1C4C7201724C30C6
:100550004A4D4D303048784830BC625A463D3E499D
:100560004949007E0101017E2A2A2A2A2A44445F41
:10057000444440514A444040444A51400000FF0135
:1005800003E080FF000008086B6B08361236243643
:10059000060F090F060000181800000010100030A8
:1005A00040FF0101001F01011E00191D1712003C30
:1005B0003C3C3C0000000000000060000000000027
:1005C000000000000000000000E00000000000004B
:1005D0000000000000000001E0000000000000003A
:1005E00000000000000001F000000000000000001A
:1005F000000000000003F000000000000000000008
:100600000000000007F000000000000000000000F3
:1006100000000007F80000000000000000000000DB
:1006200000000FF800000003C0007E000001E000A1
:100630007F0FF800000003C000FE000001E000FF93
:10064000EFF800000003C000FE000001E000FFFF23
:10065000F800000003C000F00000000F007FFE7FE4
:10066000C0000003C000F00000000F003FFE7FF854
:100670003FF1FBCFFCFEF3BC3DEFE01FFE7FFF7FB1
:10068000FBFFDFFEFEFFBC3DEFE01FC6FFFF7FFB71
:10069000FFDFFEFEFFBC3DEFE00FE3C7FE787BC34C
:1006A000DE1EF0FFBC3DEF0007FF87FC787BC3DE5A
:1006B0001EF0F83C3DEF0001FFFFF0007BC3C01EC1
:1006C000F0F03C3DEF0001F37FE03FFBC3CFFEF0D5
:1006D000F03C3DEF0003E33F807FFBC3DFFEF0F023
:1006E0003C3DEF0007E73C00787BC3DE1EF0F03CAA
:1006F0003DEF0007FFBE00787BC3DE1EF0F03C3DFF
:10070000EF0007FFFE00787BC3DE1EF0F03C3DEFFC
:10071000000FFFFE007FFBFFDFFEF0F03FFDEFE08C
:100720000FFFFF007FFBFFDFFEF0F03FFDEFE00F6C
:10073000F9FF003E79F9CF9EF0F01F3DE7E01FF191
:10074000FF0000000000000000000000001F80FF0C
:10075000007FFFFFFFFFFFFFFFFFFFE01C007F00A8
:100760007FFFFFFFFEB46D888D18E000001F007F43
:10077000FFFFFFFE95AD7DB577E000000F007FFF26
:10078000FFFFFEA5AD9D8D19E0000006007FFFFF75
:10079000FFFEB5ADEDB57EE0025052455353204A01
:1007A0004F59535449434B205357495443480057DA
:1007B000494E53212100504C41594552203400509C
:1007C0004C41594552203300504C4159455220323A
:1007D00000504C415945522031005052455353204E
:1007E0004A4F59535449434B2053574954434800A7
:1007F00047414D45204F56455221005052455353D5
:100800002042544E20544F205354415254004E2302
:10081000204F4620504C41594552530050524553A9
:10082000532042544E20544F2053544152540042BE
:100830004F50204954210000000000240027002AC6
:100840000000000000250028002B0000000000230D
:100850000026002900040404040404040402020223
:1008600002020203030303030301020408102040F1
:10087000800102040810200102040810200000007A
:10088000080002010000030407000000000000004F
:100890000000A417E51F11241FBECFEFD8E0DEBF74
:1008A000CDBF11E0A0E0B1E0E8EBF4E402C00590B8
:1008B0000D92AC3AB107D9F722E0ACEAB1E001C041
:1008C0001D92A43FB207E1F714E0CAE4D4E004C0EB
:1008D0002197FE010E940421C934D107C9F70E9463
:1008E00000180C944F220C940000FC0120812EBDB6
:1008F0000DB407FEFDCF2EB5FC01208308950895A9
:10090000833081F028F4813099F08230A9F0089585
:100910008730A9F08830C9F08430B1F4809180002C
:100920008F7D03C0809180008F7780938000089531
:1009300084B58F7784BD089584B58F7DFBCF80917A
:10094000B0008F778093B00008958091B0008F7DC4
:10095000F9CFCF93DF93282F30E0F901E358F74F19
:100960008491F901E759F74FD491F901EB5AF74F08
:10097000C491CC23A1F081110E948004EC2FF0E0FF
:10098000EE0FFF1FE55BF74FA591B491EC91ED23BE
:1009900081E090E009F480E0DF91CF91089580E05C
:1009A00090E0FACF1F93CF93DF93282F30E0F90127
:1009B000E358F74F8491F901E759F74FD491F901C2
:1009C000EB5AF74FC491CC23A9F0162F81110E9446
:1009D0008004EC2FF0E0EE0FFF1FEF5BF74FA591C7
:1009E000B4918FB7F894EC91111108C0D095DE2323
:1009F000DC938FBFDF91CF911F910895DE2BF8CF4D
:100A0000CF93DF9390E0FC01E759F74F24918B5A85
:100A1000974FFC0184918823C9F090E0880F991FBB
:100A2000FC01E95CF74FA591B491FC01EF5BF74F36
:100A3000C591D49161110DC09FB7F8948C91209508
:100A400082238C938881282328839FBFDF91CF91B5
:100A50000895623051F49FB7F8943C91822F8095AD
:100A600083238C93E8812E2BEFCF8FB7F894EC91F2
:100A70002E2B2C938FBFEACF1F93CF93DF93182F8A
:100A8000EB0161E00E940005209739F460E0812FBE
:100A9000DF91CF911F910C94D204CF3FD10511F477
:100AA00061E0F5CFE12FF0E0E358F74FE491E33058
:100AB00031F140F4E130B1F0E230E1F0C038D1057D
:100AC0007CF7E4CFE73029F1E83059F1E430B1F7B1
:100AD00080918000806280938000D0938B00C093CF
:100AE0008A0004C084B5806884BDC7BDDF91CF9102
:100AF0001F91089584B5806284BDC8BDF7CF8091F1
:100B00008000806880938000D0938900C093880023
:100B1000EDCF8091B00080688093B000C093B300A7
:100B2000E5CF8091B00080628093B000C093B400A4
:100B3000DDCF8E50806480937C0080917A00806449
:100B400080937A0080917A0086FDFCCF80917800B6
:100B50009091790008958230910538F0880F991F9F
:100B6000880F991F05970197F1F708959F92AF920B
:100B7000BF92CF92DF92EF92FF920F931F93CF938A
:100B8000DF93EC015B018885998511E0892B09F0E1
:100B900010E8F501E0808E2D812399249394811132
:100BA000912C2C813D814E815F8160E271EA87E06A
:100BB00090E00E94BF20022FF12CC22ED12C0023E6
:100BC00019F0C6010E94AB058A85982F977F09F01E
:100BD0004FC08D858F3F89F09E2D912381E009F4D0
:100BE00080E0891551F0EF85F8898F899923D1F13B
:100BF0009081892B808399249394E989FA89808153
:100C0000998D892B8083002319F0C6010E94AB05C2
:100C10008E858F3F39F0EB89FC898081988D8923FF
:100C200009F0F12AE989FA899081898D80958923D3
:100C3000808388859985892B09F073C0110F111164
:100C4000BECF8E858F3F11F0F501F082DF91CF91FD
:100C50001F910F91FF90EF90DF90CF90BF90AF90DA
:100C60009F9008959081809589238083912CC5CF92
:100C70008C30A1F58D858F3F49F0EF85F8898F89FC
:100C80009E2D912339F19081892B8083E989FA89FE
:100C90009081898D809589238083002319F0C60176
:100CA0000E94AB05E989FA898081998D892B80831F
:100CB000002319F0C6010E94AB058E858F3F09F411
:100CC000B8CFEB89FC898081988D892309F4B1CF55
:100CD000F12AAFCF908180958923D7CFE989FA890E
:100CE0008081998D892B8083002319F0C6010E9491
:100CF000AB058D858F3F49F0EF85F8898F899E2D53
:100D0000912359F09081892B8083E989FA89908118
:100D1000898D809589238083D0CF90818095892388
:100D2000F3CF16958CCFAF92BF92CF92DF92EF9216
:100D3000FF920F931F93CF93DF931F92CDB7DEB730
:100D40008C015B016A01DC018D919C911197892BCB
:100D500039F01296ED91FC91908181819CBD8DBD01
:100D6000F80183858F3F19F060E00E94D20475017D
:100D7000CA0CDB1CCE14DF04A9F0D7018D917D01D4
:100D80008983F80180819181892B29F0CE01019618
:100D90000E947504EFCFBE016F5F7F4FC8010E94B4
:100DA000B605E8CFD8011B968C918F3F19F061E012
:100DB0000E94D20481E00F90DF91CF911F910F919B
:100DC000FF90EF90DF90CF90BF90AF9008953FB726
:100DD000F8948091550290915602A0915702B091DB
:100DE000580226B5A89B05C02F3F19F00196A11DFA
:100DF000B11D3FBFBA2FA92F982F8827BC01CD0165
:100E0000620F711D811D911D42E0660F771F881FC3
:100E1000991F4A95D1F708958F929F92AF92BF92F2
:100E2000CF92DF92EF92FF924B015C010E94E706A6
:100E30006B017C010E94E7066C197D098E099F09F0
:100E4000683E734081059105A8F321E0821A91085C
:100E5000A108B10888EEC80E83E0D81EE11CF11C81
:100E600081149104A104B10429F7FF90EF90DF9061
:100E7000CF90BF90AF909F908F9008952FB7F89428
:100E800060915102709152028091530290915402EC
:100E90002FBF089508950895AF92BF92CF92DF9229
:100EA000EF92FF920F931F93CF93DF936C017B011F
:100EB0008B01040F151FEB015E01AE18BF08C017B0
:100EC000D10759F06991D601ED91FC910190F08123
:100ED000E02DC6010995892B79F7C501DF91CF91E6
:100EE0001F910F91FF90EF90DF90CF90BF90AF9048
:100EF00008959B01AC0160E074E284EF90E00E94F1
:100F0000BF20BA01A9014051510961097109DB01F2
:100F1000CA01B695A79597958795813C2FE39207CF
:100F2000A105B105D0F58F3F9105A105B10509F0E7
:100F300030F41092B9008093B80081E008958D3F9D
:100F400023E09207A105B10568F4DB01CA0143E083
:100F5000B695A795979587954A95D1F721E0209367
:100F6000B900E9CF813F9F40A105B10558F4DB01ED
:100F7000CA0135E0B695A795979587953A95D1F72B
:100F800022E0EDCFDB01CA0127E0B695A795979542
:100F900087952A95D1F723E0E2CF80E00895FF926C
:100FA0000F931F93CF93DF93FC0177FD72C0808571
:100FB0009185681779070CF06CC057FD6AC082856F
:100FC0009385481759070CF064C08689823009F46C
:100FD00066C0833009F474C0813041F48481958106
:100FE000841B950BAB01BC016150710981A592A5D1
:100FF000681779070CF4CB0192A781A783A594A564
:10100000481759070CF4CA0194A783A785A596A58C
:10101000861797070CF4CB0196A785A787A590A9FB
:10102000841795070CF4CA0190AB87A787A9813074
:1010300051F42130310509F44CC008F470C022305D
:10104000310509F491C087A9843019F5A481B581CF
:101050004A9FC0014B9F900D5A9F900D112497FD00
:10106000019695958795AB0177FF02C04F5F5F4F63
:1010700055954795840F951F07A0F0A5E02DE80F23
:10108000F91F908160FD95C09F702295207F922B63
:101090009083DF91CF911F910F91FF9008958481EC
:1010A00095818C01061B170BB8016150710986816F
:1010B0009781DC01A41BB50BAD014150510996CFBE
:1010C00086819781861B970BBA01AC01415051096B
:1010D0008DCFCA0157FD0796C3E095958795CA95B0
:1010E000E1F7C481D5818C9FD0018D9FB00D9C9F6D
:1010F000B00D1124CD01860F971FA7A1B0A5A80F91
:10110000B91FEA01C770DD2781E090E08C0101C0C2
:10111000000FCA95EAF78C91802B8C9394CFCA016B
:1011200057FD0796B3E095958795BA95E1F7C48189
:10113000D5818C9FD0018D9FB00D9C9FB00D112447
:10114000CD01860F971FA7A1B0A5A80FB91FEA016F
:10115000C770DD2781E090E001C0880FCA95EAF7EB
:1011600080959C918923D9CFCA0157FD0796A3E0AA
:1011700095958795AA95E1F7C481D5818C9FD0017B
:101180008D9FB00D9C9FB00D1124CD01860F971F30
:10119000A7A1B0A5A80FB91FEA01C770DD2781E09C
:1011A00090E08C0101C0000FCA95EAF78C9180276E
:1011B000B4CF907F2F70292B20836BCF0895FC0133
:1011C0006370668B8481958126813781613039F027
:1011D000633029F09187808733872287089531878C
:1011E00020879387828708952F923F924F925F9234
:1011F0006F927F928F929F92AF92BF92CF92DF9227
:10120000EF92FF920F931F93CF93DF93CDB7DEB78B
:101210006A970FB6F894DEBF0FBECDBF9A8F898F45
:101220007A8369834A01D22E18870F833701BC2C39
:10123000DC0159962D913C915A972115310509F001
:1012400015C118968D919C911997681779070CF024
:10125000D7C11A968D919C91481759070CF0D0C1AF
:101260004C2C512CB6E0CB9E600D711D11247C8757
:101270006B87161617060CF0C3C1EA2DF0E0FA874B
:10128000E98793E0EE0FFF1F9A95E1F7F88BEF8760
:10129000CF01840F951F181619060CF0B1C1A98D46
:1012A000BA8D58968C91811104C0BFEABD1508F41F
:1012B000D394A98DBA8DED91FC9111970284F38599
:1012C000E02DCD010995B5E0DB9EC0011124E98137
:1012D000FA81FC83EB83312C212C9C0128543F4F55
:1012E000388F2F8B4A2D50E05E8B4D8BEF89F88D18
:1012F000E20DF31D44919E828D82D12CC12C698117
:101300007A81620D731D7A8B698B842F90E09C8BA0
:101310008B8BE98DFA8DA081B18140FF82C0F1E015
:10132000BF126FC0AF126DC01C96ED91FC912F8162
:101330003885A4014C0D5D1D69897A89898D9A8D46
:101340000995EB89FC89F595E7954E2F5FEFC51A56
:10135000D50A6D817E818D899E89680F791F7E8374
:101360006D8398E0C916D10481F6AFEF2A1A3A0AC4
:10137000EB81FC81E40DF51DFC83EB83F5E02F167A
:10138000310409F0B3CF2F81388526153705B9F020
:10139000A98DBA8DED91FC91B1E0BB1257C0AB1293
:1013A00055C069817A816B5F7F4F0088F189E02D9C
:1013B000830128E030E0A401898D9A8D0995A98DDB
:1013C000BA8DED91FC9111970688F789E02DCD013A
:1013D0006A960FB6F894DEBF0FBECDBFDF91CF91F6
:1013E0001F910F91FF90EF90DF90CF90BF90AF9043
:1013F0009F908F907F906F905F904F903F902F9035
:1014000009941E96ED91FC91EF80F88409851A8568
:1014100092014D815E816B817C81898D9A8D0995C8
:1014200090CF2F8138852615370509F48ACF31E012
:10143000B31207C0A31205C01C96ED91FC91930155
:1014400078CF1E96ED91FC917301E0CF6B857C8582
:10145000641975090684F785E02D73010F851889D5
:101460009201A401898D9A8D0995A9CFF90134962D
:101470009491329745915491D91AB7E0DB9E400D73
:10148000511D1124F901259134913C8B2B8BFA01CC
:1014900025903490FA013296749031963491398BBC
:1014A000329664903196449041E04C1518F04A15FC
:1014B00008F07FC0662D062C000C770B7C836B83B5
:1014C000842D042C000C990B9E838D83A98DBA8DDD
:1014D000ED91FC9111970284F385E02DCD010995E2
:1014E000512CD12CC12CEA2DF0E0FA87E9872B2D65
:1014F00030E03C872B87A401440D511D47FC5A95D1
:10150000588F4F8B69817A81660D711D67FC7A95C2
:101510007E876D877989C71608F051CF2C2D30E072
:101520004D815E81420F531FA985BA854A9FC00134
:101530004B9F900D5A9F900D1124FC01E80DF91D51
:10154000F88BEF87852D612C4F89588D420F531FE3
:101550005E8B4D8B671408F050C044244394480EB2
:10156000877041F4C1010196EB89FC89E20DF31DFE
:10157000D4901C01D7FE19C0A98DBA8DED91FC91B4
:10158000662D70E0B1E0BB1219C0AB1217C02D85FB
:101590003E85620F731F0484F585E02D2F81388509
:1015A0004D895E89898D9A8D0995DD0C6394842D12
:1015B000D1CF1E821D821C821B8288CF4B815C8111
:1015C000640F751FAB85BC856A9FC0016B9F900D32
:1015D0007A9F900D112469817A81680F791F0684A2
:1015E000F785E02DEF80F88409851A859D014F85E8
:1015F0005889898D9A8D0995D8CF570CC3948ACF75
:101600006A960FB6F894DEBF0FBECDBFDF91CF91C3
:101610001F910F91FF90EF90DF90CF90BF90AF9010
:101620009F908F907F906F905F904F903F902F9002
:1016300008958F929F92AF92CF92EF92FF920F9365
:101640001F93CF93DF93EC01262F898D9A8D0097FE
:1016500009F051C06A30D1F41D861C868D8948E09E
:10166000849F900111248E859F85820F931F9F87F1
:101670008E8781E090E0DF91CF911F910F91FF90D5
:10168000EF90CF90AF909F908F9008956D3089F339
:10169000CC88AD888F898823C1F08C859D8536E004
:1016A000C39E800D911D11244885598548175907FF
:1016B00064F44E855F851D861C8638E0A39EC001BC
:1016C0001124840F951F9F878E87EA88FB880889DD
:1016D00019894E855F856C857D85CE010E94F40851
:1016E0002C898C859D8546E0249F800D911D1124B9
:1016F0009D878C87BECF6A3069F41D861C86FC01ED
:101700003896E4912D898E859F85E29F800D911DED
:101710001124ADCF6D3009F4ACCFFC013496349177
:10172000631708F4A6CF3296E491E61708F4A1CF28
:10173000FC01329685909490462F431B342F47E04E
:10174000349F800C911C1124F4013296349131960F
:10175000E4913323A9F1EE2399F1CC88F401359675
:10176000E491AD884F89442301F10E2E000CFF0B4C
:10177000E30FF11DCE9EA001CF9E500D11246C856C
:101780007D85460F571F68857985641775076CF44A
:101790004E855F851D861C86FC013896E491AE9EC1
:1017A000400D511D11245F874E87EA88FB88088908
:1017B00019894E855F856C857D85CE010E94F40870
:1017C000F4013496E4912C898C859D85E29F800DEF
:1017D000911D11248DCF6F927F928F929F92AF9225
:1017E000BF92CF92DF92EF92FF920F931F93CF930E
:1017F000DF93EC016B015A0139014801E881F9815D
:101800000284F385E02D0995E881F9810288F38946
:10181000E02D87019301A501B601CE010995A5012F
:10182000480D591D41505109E881F9810288F38919
:10183000E02D9301B601CE010995E881F981008878
:10184000F189E02D9401A501B601CE010995C60CE0
:10185000D71CB60161507109E881F9810088F189CE
:10186000E02D9401A501CE010995E881F981068852
:10187000F789E02DCE01DF91CF911F910F91FF905D
:10188000EF90DF90CF90BF90AF909F908F907F9020
:101890006F9009946F927F928F929F92AF92BF92B6
:1018A000CF92DF92EF92FF920F931F93CF93DF932C
:1018B0005C01EB016A01490138018701DC01ED910E
:1018C000FC916217730719F5641675062CF0962DB6
:1018D000872D3A01C92ED82E9601261937092F5F78
:1018E0003F4F048CF58DE02DA301BE01C501099584
:1018F000DF91CF911F910F91FF90EF90DF90CF90EC
:10190000BF90AF909F908F907F906F9008954615F5
:10191000570591F42617370724F0892D4B01C22F64
:10192000D82F9E01281939092F5F3F4F068CF78D5C
:10193000E02DA601B401DACF0284F385E02D0995EC
:10194000D501ED91FC910488F589E02D8301940186
:10195000A601BE01C5010995D501ED91FC9106884E
:10196000F789E02DC501DF91CF911F910F91FF9075
:10197000EF90DF90CF90BF90AF909F908F907F902F
:101980006F900994EF92FF920F931F93DC011A96C8
:101990000D911C911B9718962D913C911997ED91E3
:1019A000FC9100A0F1A1E02D7B0150E040E070E04F
:1019B00060E009951F910F91FF90EF9008954F926D
:1019C0005F926F927F928F929F92AF92BF92CF92CF
:1019D000DF92EF92FF920F931F93CF93DF936C01EF
:1019E0002B015A0139014801DC01ED91FC9102847F
:1019F000F385E02D0995E201640C751CD601ED918B
:101A0000FC91C615D7055CF40088F189E02D8701AB
:101A10009401A501BE01C60109952196EFCF068864
:101A2000F789E02DC601DF91CF911F910F91FF90B3
:101A3000EF90DF90CF90BF90AF909F908F907F906E
:101A40006F905F904F9009948F929F92AF92BF9248
:101A5000CF92DF92EF92FF920F931F93CF93DF937A
:101A6000EC015B014A016901E881F9810284F38597
:101A7000E02D099595012C0D3D1D21503109E8817E
:101A8000F9810488F589E02D78018401A401B5016C
:101A9000CE010995E881F9810688F789E02DCE010C
:101AA000DF91CF911F910F91FF90EF90DF90CF903A
:101AB000BF90AF909F908F9009948F929F92AF921A
:101AC000BF92CF92DF92EF92FF920F931F93CF932B
:101AD000DF93EC015B014A0169017801E881F9813A
:101AE0000284F385E02D0995C80CD91C86010150AC
:101AF0001109E881F9810488F589E02D9501A40197
:101B0000B501CE010995E881F9810688F789E02DB4
:101B1000CE01DF91CF911F910F91FF90EF90DF9059
:101B2000CF90BF90AF909F908F900994EF92FF92CB
:101B30000F931F93DC01ED91FC9100A0F1A1E02D2A
:101B400009951F910F91FF90EF9008950F931F93A8
:101B5000DC01ED91FC91068CF78DE02D09951F912C
:101B60000F9108952F923F924F925F926F927F92C2
:101B70008F929F92AF92BF92CF92DF92EF92FF929D
:101B80000F931F93CF93DF93CDB7DEB72E970FB68A
:101B9000F894DEBF0FBECDBF9C878B871A016C0106
:101BA000C41AD50ACB01841B950B9B014B855C8520
:101BB000241B350B38872F83812C912C5401412C09
:101BC000512C3201AEE1B0E0BA83A9830D2C000C98
:101BD000EE08FF089C01990F440B550B2B833C83A7
:101BE0004D835E83C301B20122E030E040E050E06B
:101BF0000E948D20C101820F931F9E878D87C50192
:101C0000B40124E030E040E050E00E948D20220D3D
:101C1000331D4C0C5D1C6E1C7F1C8B819C81AD8127
:101C2000BE81880E991EAA1EBB1EAD85BE852A17D1
:101C30003B0734F49D858E853E872D87292F382FCD
:101C40004D855E85241B350B2F5F3F4F01E010E073
:101C500049815A816D857E8585EB92E00E94A60DB3
:101C600089819A814F9709F07BC02F813885032E97
:101C7000000C440B550B2F83388749875A874B80BC
:101C80005C806D807E80440C551C661C771C812C0A
:101C9000912C540190E2E92EF12CC501B40122E00F
:101CA00030E040E050E00E948D208B859C85820FC3
:101CB000931F9A838983C301B20124E030E040E09E
:101CC00050E00E948D20220D331D8F819885A985BB
:101CD000BA85880E991EAA1EBB1E8B819C81AD8180
:101CE000BE81480E591E6A1E7B1EA981BA812A1721
:101CF0003B0734F499818A813A832983292F382F2D
:101D000049815A81241B350B2F5F3F4F01E010E0C2
:101D1000A70169817A8185EB92E00E94A60D5FEFB1
:101D2000E51AF50A83E2E816F10409F0B6CF2E961B
:101D30000FB6F894DEBF0FBECDBFDF91CF911F91DC
:101D40000F91FF90EF90DF90CF90BF90AF909F905A
:101D50008F907F906F905F904F903F902F9008955D
:101D60004FE150E05A8349833DCF0F931F93DC012D
:101D7000ED91FC91048CF58DE02D09951F910F914B
:101D80000895DC01ED91FC910084F185E02D09942A
:101D90002F923F924F925F926F927F928F929F927B
:101DA000AF92BF92CF92DF92EF92FF920F931F9369
:101DB000CF93DF9300D000D000D0CDB7DEB73C0189
:101DC0006A013E832D83FC82EB825801A41AB50A76
:101DD000B7FE03C0B194A194B1088D809E80861A8D
:101DE000970A97FE03C09194819491088A149B04EA
:101DF0005CF0902F812F0D811E819D838E839C2D01
:101E00008D2D6B01692F782F0C151D055CF09D81C0
:101E10008E817E836D83692F782F902F812F86018D
:101E2000C92ED82E1601201A310A2B012D813E8190
:101E3000421A530A57FE03C051944194510871014C
:101E400037FE03C03FEFE31AF30AF594E7948D8160
:101E50009E81861797075CF5A1E0B0E0BA83A9835D
:101E6000C016D1064CF1D301ED91FC910484F585A7
:101E7000E02D2B813C81A8016D817E818A149B0419
:101E80001CF04D815E81B801C3010995E418F50885
:101E9000F7FE0AC02D813E8189819A81280F391F62
:101EA0003E832D83E20CF31C0F5F1F4FD9CF2FEF22
:101EB0003FEF3A832983D4CF26960FB6F894DEBF3E
:101EC0000FBECDBFDF91CF911F910F91FF90EF908B
:101ED000DF90CF90BF90AF909F908F907F906F904A
:101EE0005F904F903F902F90089508952091ED01BD
:101EF000260F3327331F21323105ECF420917F0266
:101F0000FC0190E080E0243069F082E00895A09127
:101F1000ED012191AC0143535E4FA40FB52FB11DCC
:101F20002C930196861798F38091ED01680F6093CA
:101F3000ED0180E0089581E0089510927F0281E034
:101F400080937E021092590261E082E10E94D204E5
:101F500061E083E10E94D204E9EBF0E080818E7FB2
:101F6000808380818D7F808388E48093B80085E4BE
:101F70008093BC000895CF93DF9391E09093CC01C0
:101F80008823B9F0C091B800D091BA008091BC000C
:101F90008A7B8093BC0060E082E10E94D20460E012
:101FA00083E10E94D2040E949D0FD093BA00C09397
:101FB000B800DF91CF9108958F929F92AF92BF9218
:101FC000CF92DF92EF92FF920F931F93CF93DF9305
:101FD000D091A802D13208F0D7C0182FC091A70223
:101FE0000E94E7066B017C0180917F0281116BC02A
:101FF00082E080937F0210937E028FEF80937D02B8
:1020000010927C02D0937B02A7E8B2E0EBE5F2E00D
:1020100080E0D81391C010925A0280915A02CC0FDE
:10202000C82BC0935A0280915902813009F088C0B0
:10203000109259020E94E7066B017C0180915A02BE
:102040008093BB008091810290918202A0918302D3
:10205000B0918402892B8A2B8B2BA1F00E94E7067A
:1020600000918102109182022091830230918402BA
:102070006C197D098E099F0906171707280739076C
:1020800008F442C08091BC0083FDD8CF85EC8093DA
:10209000BC000E94E7066B017C0180917F028230C8
:1020A00009F450C080917D028F3F09F46FC0809188
:1020B0007D02803209F46CC080917D02803309F486
:1020C00069C084E026C08091810290918202A09133
:1020D0008302B0918402892B8A2B8B2B09F484CF45
:1020E0000E94E7068090810290908202A090830275
:1020F000B09084026C197D098E099F098616970697
:10210000A806B90608F070CF809180020E94BB0F2C
:1021100085E0109286021092A80210928502DF914B
:10212000CF911F910F91FF90EF90DF90CF90BF90D4
:10213000AF909F908F9008959D9191938F5F69CFFD
:1021400085EEA5CF8091810290918202A0918302B9
:10215000B0918402892B8A2B8B2B09F49ECF0E948D
:10216000E706009181021091820220918302309152
:1021700084026C197D098E099F0906171707280725
:10218000390708F08ACFC0CF81E0C3CF80E0C1CF4C
:1021900082E0BFCF83E0BDCFCF92DF92EF92FF927C
:1021A0000F931F93CF93DF93DA01A00FB11FEC01C0
:1021B000EC81FD81EA17FB0710F490E024C07A015E
:1021C0006B0189819A81488151E050938502409347
:1021D000A702109286021092A802012BF1F48981C5
:1021E0009A81DC01ED91FC910280F381E02DA70141
:1021F000B6010995E816F90601F781E00E94DC0FA7
:1022000091E08111DACF892FDF91CF911F910F914A
:10221000FF90EF90DF90CF90089521153105F9F2EE
:10222000DC01ED91FC910280F381E02D41E050E072
:10223000B9010995019709F6D2CF2F923F924F929B
:102240005F926F927F928F929F92AF92BF92CF9246
:10225000DF92EF92FF920F931F93CF93DF93CDB74F
:10226000DEB72A970FB6F894DEBF0FBECDBF7C0154
:1022700080E48D83D70116962D913C91C901079674
:1022800097FD079673E0959587957A95E1F789878D
:10229000F70144815581242F83A594A597FD0796C6
:1022A00063E0959587956A95E1F7382ED701999661
:1022B0004C90241508F4442EF70165A576A577FD0A
:1022C00060E0DA01BB27B887AF83842C912C5401DE
:1022D000489FA00CB11C11242F5F260F2A87B985B7
:1022E0003B1608F097C0F701C7A0D0A4CA0CDB1CAE
:1022F00084815A84581A5418058CF68DE02D90EB81
:10230000930DD701DA968C919401280F311D44E08A
:10231000359527954A95E1F7205F840D8F703097AA
:1023200009F456C064807580B1E06B1A71081A8296
:1023300019829A832B838C83F701678D70A181A109
:1023400092A16933F0E97F07FDE08F07910510F452
:102350000E94790710E000E030E020E044E050E027
:10236000BE016F5F7F4FD7015D968D919C910E945A
:10237000CC106E825520B1F02E80521408F4252C1A
:10238000622C712C01E010E09E012B5F3F4FA301F6
:10239000B601F701858D968D0E94CC10C60CD71C16
:1023A0005218E8CFD70193966D917D918D919C91B4
:1023B00096976933B0E97B07BDE08B07910510F470
:1023C0000E9479073394EF81F885AE0EBF1E87CF48
:1023D00099832A838B8360E0F70181A90E94D2044C
:1023E00043E050E0BE016F5F7F4FD7015B968D9158
:1023F0009C910E94930661E0F70181A90E94D2049A
:10240000452D50E0B601D7015B968D919C910E94BD
:102410009306D8CF80E094E0D7019A969C938E9350
:1024200099979C969C938E939B978FEF9FEF9E9688
:102430009C938E939D97D0969C938E939F972A966C
:102440000FB6F894DEBF0FBECDBFDF91CF911F91C5
:102450000F91FF90EF90DF90CF90BF90AF909F9043
:102460008F907F906F905F904F903F902F90089546
:102470000F931F93CF93DF9300D01F92CDB7DEB79A
:102480008C016B83FC01858D968D0097B1F01A82CB
:1024900019826A8310E000E030E020E042E050E082
:1024A000BE016F5F7F4F0E94CC100F900F900F9076
:1024B000DF91CF911F910F91089560E081A90E9453
:1024C000D20441E050E0BE016D5F7F4FF801838D83
:1024D000948D0E949306E9CF611103C066EA0C94C3
:1024E000381267EAFCCFCF93DF93EC018B8188230E
:1024F000A1F0888191E0909385028093A7021092C9
:1025000086021092A80281E00E94DC0F91E0811106
:1025100090E0892FDF91CF910895109216021092CA
:102520001502109286021092A8020E949D0F8AE462
:1025300097E090931402809313028BE497E09093BA
:1025400012028093110281E08B83CE010E947312EC
:10255000982F8111CECFDDCFE09116028091150228
:10256000E81730F4F0E0E455FE4F808190E00895E4
:102570008FEF9FEF089590911602809115022FEF33
:102580003FEF981748F4E92FF0E0E455FE4F208123
:1025900030E09F5F90931602C90108958091150263
:1025A00090911602891B990B0895CF92DF92EF92BA
:1025B000FF920F931F93CF93DF937C01CB018A018E
:1025C00020918502222389F0EB016B01C40ED51EF8
:1025D000CC15DD0569F06991D701ED91FC91019071
:1025E000F081E02DC7010995F3CF642F0E94760F8B
:1025F000C801DF91CF911F910F91FF90EF90DF9075
:10260000CF900895CF93DF931F92CDB7DEB7698344
:10261000209185022223F9F02091A802203258F05F
:1026200021E030E0FC013383228390E080E00F90D2
:10263000DF91CF91089580918602E82FF0E0E9576D
:10264000FD4F998190838F5F809386028093A802CB
:1026500081E090E0ECCF61E0CE0101960E94760F20
:10266000F7CF90E080E00895CF92DF92EF92FF9253
:102670000F931F93CF93DF9384E00E94A9047C0102
:10268000D1E0892B09F4D0E082E00E94A9048C01FA
:10269000C1E0892B09F4C0E08FE00E9499056C012C
:1026A0008EE00E949905843691054CF580913B029D
:1026B000811130C081E080933902EF2809F04CC0CD
:1026C00080910101882309F447C081E0809336029C
:1026D000D0930101012B09F042C0809100018823B1
:1026E000F1F181E080933702C0930001DF91CF9137
:1026F0001F910F91FF90EF90DF90CF900895853854
:10270000934044F080913A02811104C081E08093AB
:102710003802D3CF84E6C816D10444F4809139023C
:10272000811111C081E080933A02C7CF25E8C2161B
:1027300023E0D20644F080913802811104C081E088
:1027400080933B02BACF10923B0210923A02109251
:10275000390210923802B1CF10923602B9CF1092DE
:102760003702C2CFCF93DF930E9434138091360299
:10277000882349F180914E0290914F020197B9F45C
:10278000D0E0C0E0BE018AE00E943C0564E070E059
:1027900080E090E00E940C072196C11581E0D807E7
:1027A00089F782E090E090934F0280934E028091EF
:1027B0004E0290914F02892B31F481E090E090938A
:1027C0004F0280934E0280913702882361F08091FE
:1027D0004E0290914F020397029728F4F0E0E0E058
:1027E000DF91CF910994DF91CF9108958F929F92BD
:1027F000AF92BF920F931F93CF93DF93CDB7DEB706
:10280000A1970FB6F894DEBF0FBECDBF19A242301C
:1028100008F44AE08E010F5D1F4F842E912CB12CDD
:10282000A12CA50194010E94BF20E62FB901CA0185
:10283000EA3044F5E05DD801EE938D01232B242B83
:10284000252B79F790E080E0109769F0FD01019069
:102850000020E9F73197AF014A1B5B0BBD0185EB07
:1028600092E00E944C07A1960FB6F894DEBF0FBE0F
:10287000CDBFDF91CF911F910F91BF90AF909F90EF
:102880008F900895E95CD7CF42E050E068EA71E0AC
:1028900085EB92E00C944C070F931F93CF93DF933B
:1028A0008C01D0E0C0E0F801EC0FFD1F64916623BD
:1028B00041F085EB92E00E94190B892B11F02196D3
:1028C000F2CF0E9444148C0F9D1FDF91CF911F9176
:1028D0000F9108950E9443220F931F93CF93DF938C
:1028E000EC018CE491E0998388838FA198A50097EF
:1028F00021F00E94BA2118A61FA20B8D1C8D011574
:10290000110551F0F80182819381009711F00E9426
:10291000BA21C8010E94BA218D8D9E8D009731F099
:10292000DF91CF911F910F910C94BA21DF91CF913C
:102930001F910F910895CF93DF93EC010E946C14C7
:10294000CE01DF91CF910C94BA21CF93DF93EC01AC
:102950002FA98C819D81289FB001299F700D112482
:102960002E813F81C901079697FD079623E0959533
:1029700087952A95E1F7689FA001699F500D789F80
:10298000500D112470E060E08FA198A50E944822AC
:102990001AA619A61CA61BA68C819D8101979EA72D
:1029A0008DA78E819F81019798AB8FA7DF91CF91E3
:1029B000089585EB92E00E94A5148CE090E090933E
:1029C000C2028093C10288E190E09093C402809398
:1029D000C30282E08093C9028093CA0281E090E042
:1029E0009093C8028093C7029093C6028093C50259
:1029F000E0913C02F0913D02319788E690E0E830AA
:102A0000F10570F4EA5FFA4E0C9404210E151615C8
:102A100019151C151F1522152515281580EB90E09A
:102A20000E944C1485EB92E00C941D1186EA90E014
:102A3000F7CF8CE990E0F4CF82E990E0F1CF88E81D
:102A400090E0EECF80E890E0EBCF86E790E0E8CF33
:102A50008CE690E0E5CFCF93DF9385EB92E00E9488
:102A6000A51485EB92E00E941D1162E370E080E006
:102A700090E00E940C070E94D91485EB92E00E941E
:102A8000A51485EB92E00E941D1162E370E080E0E6
:102A900090E00E940C0780913C0290913D020697C5
:102AA000029760F58091020190910301029734F141
:102AB00088E090E090933D0280933C020E94D914FC
:102AC000C0911001D091110180910E0190910F01E0
:102AD000BE010E94F0200196FC01EC5FFE4F2081B8
:102AE0002223B1F390930F0180930E0166EB73E004
:102AF00080E090E0DF91CF910C940C07DF91CF91B3
:102B0000089585ED8093BC008091810290918202AE
:102B1000A0918302B09184020796A11DB11D23E00C
:102B2000B695A795979587952A95D1F72091BC00E2
:102B300024FD03C010927F020895409181025091BC
:102B400082026091830270918402452B462B472BB1
:102B500069F30097A105B10541F02AE22A95F1F742
:102B600000C00197A109B109E1CF809180020C94C6
:102B7000BB0F1F920F920FB60F9211242F933F930A
:102B80008F939F93AF93BF93809151029091520284
:102B9000A0915302B09154023091500223E0230FD0
:102BA0002D3758F50196A11DB11D20935002809339
:102BB000510290935202A0935302B0935402809119
:102BC000550290915602A0915702B0915802019679
:102BD000A11DB11D8093550290935602A0935702F8
:102BE000B0935802BF91AF919F918F913F912F91D8
:102BF0000F900FBE0F901F90189526E8230F029696
:102C0000A11DB11DD2CF1F920F920FB60F921124AA
:102C10002F933F934F935F936F937F938F939F93E4
:102C2000AF93BF93EF93FF9380912A0290912B0271
:102C3000A0912C02B0912D02892B8A2B8B2BD1F1E4
:102C400090912502E0912602F09127028081892748
:102C5000808380912A0290912B02A0912C02B09146
:102C60002D02181619061A061B069CF480912A02DA
:102C700090912B02A0912C02B0912D020197A109F5
:102C8000B10980932A0290932B02A0932C02B09357
:102C90002D02FF91EF91BF91AF919F918F917F9105
:102CA0006F915F914F913F912F910F900FBE0F90B9
:102CB0001F90189580910C01E8E9F7E0E4919FEFEF
:102CC00090930C01E13051F030F0E23069F060E0B7
:102CD0000E94D204DECF10926E00F9CF90916F0067
:102CE0009D7F90936F00F3CF909170009D7F9093A4
:102CF000700091E09093B0009091B100987F946043
:102D00009093B1001092B300E2CF1F920F920FB6D2
:102D10000F9211242F933F934F935F936F937F9361
:102D20008F939F93AF93BF93EF93FF938091B900DD
:102D3000887F803609F44AC0F0F5883209F4A7C0CC
:102D400018F5803109F49BC0B8F4882309F4F9C060
:102D5000883009F494C0FF91EF91BF91AF919F919A
:102D60008F917F916F915F914F913F912F910F9034
:102D70000FBE0F901F901895883109F488C08032DB
:102D800051F780937D0214C0803409F49DC040F453
:102D90008033B9F38833F9F680937D0285ECB0C0B7
:102DA000803509F485C0883509F496C0883499F6D1
:102DB0000E948115D0CF883909F48CC038F5883746
:102DC00029F050F4883611F0803729F683E080939B
:102DD0007F0210920F0257C0883809F47BC08039F7
:102DE00019F0803809F0B7CF80910F02803208F0D7
:102DF00071C0E0910F0281E08E0F80930F028091ED
:102E0000BB00F0E0E151FE4F80833DC0803B39F0D4
:102E1000E0F4803A09F479C0883A09F09CCF84E064
:102E200080937F021092EE011092ED01E091130267
:102E3000F091140209958091ED0181110FC081E09C
:102E40008093ED011092CD0109C0803C09F4A6CF1A
:102E5000883C09F4A3CF883B09F07DCFE091EE01D7
:102E600081E08E0F8093EE01F0E0E353FE4F80810E
:102E70008093BB009091EE018091ED0129C080917B
:102E80005A028093BB0085EC8093BC0064CF909184
:102E90007C0280917B02981758F5E0917C0281E0DA
:102EA0008E0F80937C02F0E0E55AFD4F8081E9CFE0
:102EB000E0917C0281E08E0F80937C028091BB00C8
:102EC000F0E0E55AFD4F808390917C0280917B0277
:102ED0009817C8F285E8D8CFE0917C0281E08E0F88
:102EE00080937C028091BB00F0E0E55AFD4F808327
:102EF00080917E0281115CCF81E08093590284EA47
:102F00008093BC0010927F0226CF85EC8093BC009A
:102F100010927F0280910F02803230F4E0910F0214
:102F2000F0E0E151FE4F108260910F0270E0E091FD
:102F30001102F09112028FEE91E0099510920F02AA
:102F40000ACF10927D0234CFA9EAB2E013961C9208
:102F50001E92129748EE53E060E070E014964D9395
:102F60005D936D937C9317978AE391E011969C9300
:102F70008E93E5EBF2E01382128220E830E0358395
:102F8000248380E490E0978386833187208793872A
:102F90008287168A158614861786168621E0258B69
:102FA000248B8FEF9FEF938B828B918B808B278B62
:102FB000108E128E118E148E138E168E158E40E882
:102FC0005AE166E070E0478F50A361A372A340EA24
:102FD00056E861E070E043A354A365A376A310A66E
:102FE00017A292AB81AB94AB83AB96AB85AB27AB0F
:102FF000B1AFA0AF12AE8AE791E0918380830895CC
:10300000CF93DF931F92CDB7DEB7789484B58260FB
:1030100084BD84B5816084BD85B5826085BD85B57C
:10302000816085BD80916E00816080936E001092FA
:103030008100809181008260809381008091810075
:103040008160809381008091800081608093800006
:103050008091B10084608093B1008091B000816064
:103060008093B00080917A00846080937A00809190
:103070007A00826080937A0080917A0081608093E8
:103080007A0080917A00806880937A001092C10063
:1030900062E082E00E94000562E084E00E94000598
:1030A00061E083E00E94000561E089E00E94000584
:1030B00061E08AE00E94000561E08BE00E9400056B
:1030C0008091DC029091DD02892B09F487C0809108
:1030D000EA029091EB0297FD24C061E00E94000596
:1030E00061E08091EA020E94D2046AE070E080E030
:1030F00090E00E940C0760E08091EA020E94D204F6
:103100006AE070E080E090E00E940C0761E080914E
:10311000EA020E94D2046AE070E080E090E00E943F
:103120000C07E090ED02F090EE02E114F10409F4D6
:10313000AAC186E090E00E941E218C018CE3F80178
:103140008083F282E182138280E290E0958384831F
:103150001093D3020093D2020115110509F467C040
:103160001092160210921502109286021092A80276
:103170000E949D0F8AE497E09093140280931302BB
:103180008BE497E0909312028093110281E0F801A2
:103190008383C8010E947312882309F448C085EB19
:1031A00092E00E94A5141092DF021092DE021092AB
:1031B000E1021092E0028091B9029091BA02019767
:1031C0009093E3028093E2028091BB029091BC0253
:1031D00001979093E5028093E40229C02091EC02CC
:1031E0008091B9029091BA02289FA001299F500DA9
:1031F00011242091BB023091BC02C901079697FDB2
:103200000796B3E095958795BA95E1F79C01429FA3
:10321000C001439F900D529F900D11240E941E21CA
:103220009093DD028093DC02892B09F050CF82E07D
:103230008093EF028091BB029091BC027C01F0E28E
:10324000EF1AF108F7FE04C07C012FE1E21AF10841
:10325000F594E7940091B9021091BA02035711094D
:1032600017FF02C00F5F1F4F15950795B12CA12CBA
:10327000912CD12CC12CC60187709927990C892BD0
:1032800059F4F60173E0F595E7957A95E1F7EA0DC3
:10329000FB1DE854FA4F949097FE0AC021E030E0FD
:1032A000A701B601600F711F85EB92E00E94C10E6D
:1032B0003FEFC31AD30A43E7C416D104E1F68FEFF8
:1032C000E81AF80A9FE0A90EB11CE0EEAE16E1E0A4
:1032D000BE0679F68091D2029091D302009709F44C
:1032E00049C1198201E010E09E012F5F3F4F49E183
:1032F00050E06DE171E00E94CC10882359F064E643
:1033000070E080E090E00E940C076FEA85EB92E0AD
:103310000E94381268EC70E080E090E00E940C0798
:1033200085EB92E00E94A51485EB92E00E941D11AE
:1033300010924F0210924E0210923D0210923C02E7
:1033400081E080930D0121E030E030930301209370
:10335000020130930F0120930E01809304018093AA
:103360000501809306018093070110921E021092BE
:103370001D028AEE9BE0A0E0B0E0809308019093EC
:103380000901A0930A01B0930B0158E1252E312CBD
:1033900001E010E068E4462E512C612C712C64E1B0
:1033A00070E080E090E00E940C0780914E029091C6
:1033B0004F02009709F0EEC00E94B2130E943E0730
:1033C000C0904A02D0904B02E0904C02F0904D0227
:1033D0006C197D098E099F09613273408105910541
:1033E00080F00E943E0760934A0270934B028093E4
:1033F0004C0290934D028091120191E089278093B5
:10340000120185EB92E00E94A5143092C202209234
:10341000C1021092C4021092C30282E08093C902DA
:103420008093CA021093C8020093C7021093C60289
:103430000093C5028FE298E00E944C1488E090E06F
:103440009093C2028093C10220E230E03093C40224
:103450002093C30281E08093C9028093CA028091C5
:103460001201882321F08CE198E00E944C1485EB36
:1034700092E00E941D1180E090E0892B09F48FCF2B
:103480000E9400008CCF0091D0021091D102011552
:10349000110509F4CCCEF80183858F3F41F061E03E
:1034A0000E94000561E0F80183850E94D204F801C2
:1034B00080819181892B09F43CC0FFB6F8948091FA
:1034C0001002811127C0EFE5F8E08491E3E7F8E00E
:1034D0009491E82FF0E0EE0FFF1FE95CF74FA59104
:1034E000B491EC91E92321F461E08AE00E94D204D6
:1034F00061E08AE00E9400058CB580618CBD8CB5CE
:1035000080648CBD61E08DE00E94000561E08BE08D
:103510000E940005809110028F5F80931002FFBE11
:1035200081E0F801838F61E08091E6020E9400054E
:1035300036CE61E084850E940005F80182858B7F8C
:1035400060E009F061E084850E94D204F80185857D
:103550008F3F41F061E00E94000561E0F801858540
:103560000E94D204F80186858F3FD1F260E00E946C
:103570000005D6CF60E08091E6020E94D20449E1C6
:1035800050E06DE171E08091D0029091D1020E94F3
:103590009306B3CE8130910509F0DEC00E94B213CC
:1035A00080913802882309F4BBC080910201909178
:1035B00003018130910509F0A8C084E090E0909368
:1035C00003018093020190931101809310010E94E6
:1035D0003E07C0904602D0904702E0904802F0902B
:1035E00049026C197D098E099F096132734081057A
:1035F000910580F00E943E07609346027093470257
:1036000080934802909349028091120191E08927AA
:103610008093120185EB92E00E94A5143092C202C1
:103620002092C1021092C4021092C30281E08093E2
:10363000C9028093CA021093C8020093C702109374
:10364000C6020093C5028EE098E00E944C1440E24E
:1036500050E060E270E08BE190E00E94B20D40E645
:1036600050E060E670E085E690E00E94B20D8CE3E9
:1036700090E09093C2028093C1023092C4022092E3
:10368000C30282E08093C9028093CA021093C802E9
:103690000093C7021093C6020093C502C0901001A8
:1036A000D09011010D2C000CEE08FF084AE0C70174
:1036B000B601F7FE0DC06DE285EB92E00E94190B9A
:1036C00066277727CB016C197D098E099F094AE08F
:1036D0000E94F6130E94441488E090E09093C20286
:1036E0008093C10288E390E09093C4028093C30268
:1036F00081E08093C9028093CA02809112018823DD
:1037000009F4B5CE8BEF97E0B0CE0197909303010B
:10371000809302018091100190911101019753CF84
:1037200080913902882309F452CF8091020190914F
:10373000030124E030E0B9010E94F020019690934B
:103740000301809302018091100190911101B90150
:103750000E94F020019637CF70E060E08230910542
:1037600009F074C289E00E943C0570E060E08AE0E4
:103770000E943C0570E060E08BE00E943C05E09018
:103780000201F090030191E0E916F10409F560915E
:1037900008017091090180910A0190910B01665214
:1037A0007240810991092AE030E040E050E00E9437
:1037B000BF20490130931802209317026AEF70E08E
:1037C000621B730B89E00E943C05B4018AE07AC059
:1037D00080910E0190910F018230910509F46FC024
:1037E0000CF063C0019709F475C080910D01209120
:1037F0001001309111012130310509F06EC08111A5
:1038000074C30E943E07C0901902D0901A02E09043
:103810001B02F0901C026C197D098E099F09C09053
:103820000801D0900901E0900A01F0900B01C61642
:10383000D706E806F90608F41DC30E943413209148
:103840000D0180913C0290913D028330910509F475
:103850002BC108F013C18130910509F419C10297F9
:1038600009F41FC180910D01882309F404CE2111B0
:10387000D2C180910C01833009F01FC1E8E9F7E063
:10388000F490F7FCC8C161E083E00E940005FF20CE
:1038900009F48CC1F2E0FF129DC18091B100887FD4
:1038A00084608093B10089E8C1C18330910569F0DB
:1038B000049709F09ACF6FEF70E089E003C06FEFD3
:1038C00070E08BE00E943C0590CF6FEF70E089E0E4
:1038D0000E943C056FEF70E079CF811143C30E94D5
:1038E0003E078090210290902202A0902302B09087
:1038F0002402681979098A099B098090080190902F
:103900000901A0900A01B0900B0186169706A8063F
:10391000B90608F092CFE0910E01F0910F01EC5F33
:10392000FE4F108221E0E21AF108F0920301E092CA
:10393000020187E090E090933D0280933C020E9458
:10394000D9140E942B1580910201909103010197D7
:10395000C9F5CC24CA94D12CE0900E01F0900F014F
:1039600032E0E316F10409F47FC00CF06FC081E08F
:10397000E816F10409F47FC064E070E080E090E0B4
:103980000E940C07F1E0CF1AD10830F72091100106
:1039900030911101C701B9010E94F0207C014FEF65
:1039A000E41AF40AF701EC5FFE4F8081882391F35B
:1039B000F0920F01E0920E0184E090E090934F02AC
:1039C00080934E020E943E07609321027093220270
:1039D000809323029093240281E080930D012DCFE8
:1039E0008FEF9FEF90931E0280931D0280911D0226
:1039F00090911E02019690931E0280931D02809169
:103A00001F029091200290933D0280933C020E94FD
:103A10003E076093210270932202809323029093C9
:103A2000240210920D018091080190910901A0914A
:103A30000A01B0910B01853F21E09207A105B10574
:103A400008F48DC24997A109B10981C293E0E91632
:103A5000F10469F0B60189E0E4E0EE16F10409F042
:103A60008BCF0E943C0588CFB6018BE0FACFB60120
:103A700089E00E943C05B6018AE0F3CF85309105CC
:103A8000C9F0A8F0069709F0EDCE8091360202C089
:103A900080913B02882309F4E5CE81E080930D01FB
:103AA000E1CE80913A02F6CF80913902F3CF809136
:103AB0003802F0CF80913702EDCF8F3F09F0ABC0D5
:103AC00083E080930C01E8E9F7E0F490FFEFFF1644
:103AD00009F4A1C021E0F21639F1F21658F032E0F3
:103AE000F31609F440C0F7FC96C061E083E00E9441
:103AF0000005D0CE14BC15BC84B5826084BD85B5EC
:103B0000816085BDE8E5F8E08491E82FF0E0EE0FF4
:103B1000FF1FEF5BF74F85919491ECE6F8E0E4919D
:103B2000E0932902F12CAFCE109280001092810018
:103B30008091810088608093810080918100816004
:103B400080938100E8E5F8E08491E82FF0E0EE0F43
:103B5000FF1FEF5BF74F85919491ECE6F8E0E4915D
:103B6000E093280290CE1092B0001092B1008091A4
:103B7000B00082608093B0008091B100816080933A
:103B8000B100E8E5F8E08491E82FF0E0EE0FFF1FC8
:103B9000EF5BF74F859194919093270280932602D3
:103BA000ECE6F8E0E491E09325026DCE85B5887FE0
:103BB000836085BD89E887BD40923202509233020E
:103BC000609234027092350280916E008260809320
:103BD0006E001CC021E0F21221C080918100887F1C
:103BE00081608093810087EB92E2909389008093BB
:103BF000880040922E0250922F0260923002709202
:103C0000310280916F00826080936F0080910D017E
:103C1000882309F430CC0E942B152DCC92E0F916A4
:103C200021F0F110F3CF87EBC6CF87EB8093B30081
:103C300040922A0250922B0260922C0270922D0226
:103C400080917000826080937000E0CF039709F04C
:103C50006BC089E00E943C0570E060E08AE00E9451
:103C60003C050E94B2130E943E07C0904202D090D1
:103C70004302E0904402F09045026C197D098E09E0
:103C80009F09613273408105910580F00E943E07D3
:103C900060934202709343028093440290934502E2
:103CA0008091120191E089278093120185EB92E0C7
:103CB0000E94A51426E030E03093C2022093C10296
:103CC0001092C4021092C30282E08093C9028093D2
:103CD000CA021093C8020093C7021093C602009351
:103CE000C50280EF97E00E944C141093C20200932B
:103CF000C10280E290E09093C4028093C30281E00D
:103D00008093C9028093CA021093C8020093C7022D
:103D10001093C6020093C50280911201882309F412
:103D2000A6CB8AED97E0A1CB89E00E943C0570E02C
:103D300060E08AE00E943C0570E060E08BE00E9459
:103D40003C050E94B2130E943E07C0903E02D090F4
:103D50003F02E0904002F09041026C197D098E090B
:103D60009F09613273408105910580F00E943E07F2
:103D700060933E0270933F02809340029093410211
:103D80008091120191E089278093120185EB92E0E6
:103D90000E94A51428E230E03093C2022093C102B1
:103DA0001092C4021092C30281E08093C9028093F2
:103DB000CA021093C8020093C7021093C602009370
:103DC000C50280910E0190910F018230910509F496
:103DD0004BC0ECF5019709F442C080E290E090936B
:103DE000C2028093C1023092C4022092C30282E0D8
:103DF0008093C9028093CA021093C8020093C7023D
:103E00001093C6020093C5028FEA97E00E944C14FB
:103E10001093C2020093C102E8E3F0E0F093C40201
:103E2000E093C30281E08093C9028093CA02109399
:103E3000C8020093C7021093C6020093C502809186
:103E40001201882309F413CB89E997E00ECB833064
:103E5000910569F0049709F686EB97E002C081EDC1
:103E600097E00E944C14B9CF88EC97E0FACF8FEB23
:103E700097E0F7CF85EB92E00E94A51485EB92E0E6
:103E80000E941D11D12CC12CAA24AA94B12CE0901F
:103E90001702F0901802B5016E197F096C197D099F
:103EA00077FF02C070E060E089E00E943C05B70146
:103EB0006C197D0977FF02C070E060E08AE00E9423
:103EC0003C0564E070E080E090E00E940C07EFEFBA
:103ED000CE1ADE0AC114F1E0DF06C9F683E090E0F5
:103EE00090934F0280934E02A8CC0E94352026E08A
:103EF00030E040E050E00E948D20DC01CB010196D3
:103F0000A11DB11D9093200280931F0290933D024A
:103F100080933C020E943E076093190270931A023C
:103F200080931B0290931C0210920D018091080156
:103F300090910901A0910A01B0910B01853FF1E038
:103F40009F07A105B10558F0C297A109B109809357
:103F5000080190930901A0930A01B0930B010E94FC
:103F6000D9146BCC0E94352026E030E040E050E0D0
:103F70000E948D20DC01CB010196A11DB11D909303
:103F8000200280931F02069709F030CD80911D0218
:103F900090911E0204970CF023CD80911F02909106
:103FA0002002069709F022CD0E94352026E030E05D
:103FB00040E050E00E948D206F5F7F4F8F4F9F4FFA
:103FC0007093200260931F02E8CF85EB92E00C947F
:103FD0006C148F929F92AF92BF92CF92DF92EF922A
:103FE000FF92CF93DF93EC01688179818A819B8175
:103FF000611571058105910521F464E279ED8BE588
:1040000097E02DE133EF41E050E00E948D2049011F
:104010005A019B01AC01A7EAB1E40E94AC206B01FC
:104020007C01ACEEB4EFA50194010E94BA20C60E4B
:10403000D71EE81EF91EF7FE06C081E0C81AD10897
:10404000E10880E8F80AC882D982EA82FB82C701C7
:10405000B6019F77DF91CF91FF90EF90DF90CF90E7
:10406000BF90AF909F908F9008958F929F92AF9244
:10407000BF92CF92DF92EF92FF9260911301709105
:10408000140180911501909116016115710581054A
:10409000910521F464E279ED8BE597E02DE133EFB2
:1040A00041E050E00E948D2049015A019B01AC0182
:1040B000A7EAB1E40E94AC206B017C01ACEEB4EF46
:1040C000A50194010E94BA20C60ED71EE81EF91E53
:1040D000F7FE06C081E0C81AD108E10880E8F80AB6
:1040E000C0921301D0921401E0921501F0921601D2
:1040F000C701B6019F77FF90EF90DF90CF90BF9000
:10410000AF909F908F900895609313017093140166
:1041100080931501909316010895052E97FB1EF4C8
:1041200000940E94A42057FD07D00E94BF2007FCE6
:1041300003D04EF40C94A4205095409530952195D1
:104140003F4F4F4F5F4F08959095809570956195C3
:104150007F4F8F4F9F4F08950E94E120A59F900DA4
:10416000B49F900DA49F800D911D11240895B7FF59
:104170000C94AC200E94AC20821B930B0895A1E20A
:104180001A2EAA1BBB1BFD010DC0AA1FBB1FEE1FD1
:10419000FF1FA217B307E407F50720F0A21BB30B1C
:1041A000E40BF50B661F771F881F991F1A9469F798
:1041B00060957095809590959B01AC01BD01CF01F4
:1041C0000895A29FB001B39FC001A39F700D811DF0
:1041D0001124911DB29F700D811D1124911D089510
:1041E00097FB072E16F4009407D077FD09D00E94A4
:1041F0000A2107FC05D03EF4909581959F4F0895C4
:10420000709561957F4F0895EE0FFF1F0590F49113
:10421000E02D0994AA1BBB1B51E107C0AA1FBB1FBD
:10422000A617B70710F0A61BB70B881F991F5A9542
:10423000A9F780959095BC01CD0108950F931F9328
:10424000CF93DF938230910510F482E090E0E0910B
:10425000F202F091F30230E020E0B0E0A0E030970D
:1042600099F42115310509F44AC0281B390B243073
:104270003105D8F58A819B816115710589F1FB01B2
:1042800093838283FE0111C0408151810281138199
:1042900048175907E0F04817590799F4109761F04B
:1042A00012960C93129713961C933296CF01DF91BE
:1042B000CF911F910F9108950093F2021093F30292
:1042C000F4CF2115310551F04217530738F0A901F9
:1042D000DB019A01BD01DF01F801C1CFEF01F9CF88
:1042E0009093F3028093F202CDCFFE01E20FF31F11
:1042F000819391932250310939832883D7CF20911C
:10430000F0023091F102232B41F4209119013091F8
:104310001A013093F1022093F0022091170130919D
:1043200018012115310541F42DB73EB740911B010D
:1043300050911C01241B350BE091F002F091F10229
:10434000E217F307A0F42E1B3F0B2817390778F06C
:10435000AC014E5F5F4F2417350748F04E0F5F1FCB
:104360005093F1024093F002819391939FCFF0E03C
:10437000E0E09CCFCF93DF930097E9F0FC01329708
:1043800013821282A091F202B091F302ED0130E0AB
:1043900020E01097A1F420813181820F931F20919A
:1043A000F0023091F1022817390709F061C0F0934B
:1043B000F102E093F002DF91CF910895EA01CE1768
:1043C000DF07E8F54A815B819E0141155105B1F790
:1043D000E901FB83EA8349915991C40FD51FEC177A
:1043E000FD0761F4808191810296840F951FE90198
:1043F00099838883828193819B838A83F0E0E0E0C4
:1044000012968D919C9113970097B9F52D913C913F
:104410001197CD010296820F931F2091F0023091E7
:10442000F1022817390739F6309751F51092F30247
:104430001092F202B093F102A093F002BCCFD383AA
:10444000C28340815181840F951FC817D90761F439
:104450004E5F5F4F88819981480F591F5183408378
:104460008A819B81938382832115310509F0B0CF26
:10447000F093F302E093F2029ECFFD01DC01C0CF86
:1044800013821282D7CF81E090E0F8940C944F22EF
:10449000DC0101C06D9341505040E0F7089514E0F5
:1044A000CAE4D4E004C0FE010E9404212196CB346A
:1044B000D107C9F7F894FFCF010101000101010103
:1044C000EA0B0000FF0101000100010100000000F3
:1044D00000F4028000AED580A83FD30040AD8BA190
:1044E000C8DA1281FFD91FDB4033A62010A40000D8
:1044F00000000213D51231137F04CE12BB12AC128E
:1045000000000000190B4C073113750FCF077F0413
:10451000C10E960DB50EA60DC80E7F04DF086C12F5
:104520005D0D240DDF0CC20C4A0CEB0B6A1400006D
:104530000000190B4C073113750FCF077F04C10E14
:10454000960DB50EA60DC80E7F04DF086C125D0D2A
:10455000240DDF0CC20C4A0CEB0B1D116C149B14C8
:044560000D0A000040
:107E0000112484B714BE81FFF0D085E080938100F7
:107E100082E08093C00088E18093C10086E0809377
:107E2000C20080E18093C4008EE0C9D0259A86E02C
:107E300020E33CEF91E0309385002093840096BBD3
:107E4000B09BFECF1D9AA8958150A9F7CC24DD24C4
:107E500088248394B5E0AB2EA1E19A2EF3E0BF2EE7
:107E6000A2D0813461F49FD0082FAFD0023811F036
:107E7000013811F484E001C083E08DD089C08234E0
:107E800011F484E103C0853419F485E0A6D080C0E4
:107E9000853579F488D0E82EFF2485D0082F10E0AE
:107EA000102F00270E291F29000F111F8ED06801E7
:107EB0006FC0863521F484E090D080E0DECF843638
:107EC00009F040C070D06FD0082F6DD080E0C81688
:107ED00080E7D80618F4F601B7BEE895C0E0D1E017
:107EE00062D089930C17E1F7F0E0CF16F0E7DF06D8
:107EF00018F0F601B7BEE89568D007B600FCFDCFD4
:107F0000A601A0E0B1E02C9130E011968C91119780
:107F100090E0982F8827822B932B1296FA010C0160
:107F200087BEE89511244E5F5F4FF1E0A038BF0790
:107F300051F7F601A7BEE89507B600FCFDCF97BE46
:107F4000E89526C08437B1F42ED02DD0F82E2BD052
:107F50003CD0F601EF2C8F010F5F1F4F84911BD097
:107F6000EA94F801C1F70894C11CD11CFA94CF0C13
:107F7000D11C0EC0853739F428D08EE10CD085E9AC
:107F80000AD08FE07ACF813511F488E018D01DD067
:107F900080E101D065CF982F8091C00085FFFCCF94
:107FA0009093C60008958091C00087FFFCCF809118
:107FB000C00084FD01C0A8958091C6000895E0E648
:107FC000F0E098E1908380830895EDDF803219F02E
:107FD00088E0F5DFFFCF84E1DECF1F93182FE3DFCA
:107FE0001150E9F7F2DF1F91089580E0E8DFEE27F6
:047FF000FF270994CA
:027FFE00040479
:00000001FF
